S00F00006D6963726F53442E7372656364
S11300000C94A1010C94BE010C94BE010C94BE018D
S11300100C94BE010C94BE010C94BE010C94BE0160
S11300200C94BE010C94BE010C94BE010C94BE0150
S11300300C94BE010C94BE010C94BE010C94BE0140
S11300400C94BE010C94BE010C94BE010C94BE0130
S11300500C94BE010C94BE010C94BE010C94BE0120
S11300600C94BE010C94BE010000000000000000CE
S1130070002F000000000700070000147F147F1405
S113008000242A7F2A12006264081323003649558B
S1130090225000000503000000001C224100000063
S11300A041221C000014083E08140008083E0808F9
S11300B0000000A060000008080808080000606054
S11300C00000002010080402003E5149453E000093
S11300D0427F4000004261514946002141454B3175
S11300E0001814127F10002745454539003C4A4941
S11300F049300001710905030036494949360006B3
S11301004949291E0000363600000000563600001A
S11301100008142241000014141414140000412295
S1130120140800020151090600324959513E007C6D
S11301301211127C007F49494936003E4141412257
S1130140007F4141221C007F49494941007F090940
S11301500901003E4149497A007F0808087F0000F0
S1130160417F4100002040413F01007F08142241AB
S1130170007F40404040007F020C027F007F040863
S1130180107F003E4141413E007F09090906003EBF
S11301904151215E007F09192946004649494931E8
S11301A00001017F0101003F4040403F001F20400B
S11301B0201F003F4038403F0063140814630007C9
S11301C00870080700615149454300007F41410020
S11301D000552A552A55000041417F0000040201C0
S11301E0020400404040404000000102040000209E
S11301F054545478007F48444438003844444420DC
S113020000384444487F00385454541800087E0988
S113021001020018A4A4A47C007F08040478000050
S1130220447D4000004080847D00007F102844000D
S11302300000417F4000007C04180478007C08041E
S1130240047800384444443800FC2424241800185A
S1130250242418FC007C0804040800485454542046
S113026000043F444020003C4040207C001C2040CF
S1130270201C003C4030403C004428102844001C12
S1130280A0A0A07C004464544C44000008774100C2
S11302900000006300000000417708000008040823
S11302A00804003A4040207A003D4040403D00218F
S11302B054545479007D1211127D00394444443958
S11302C0003D4242423D000205020000007E014919
S11302D05573007C1010081CBC5F9C60A461846290
S11302E0B6639664B0659F66B567FFFFAE2000B045
S11302F0C8001040813FA1A6A83FA4D300D5F0D9DF
S113030022DA12DB208D14494E46494E4954594E87
S1130310414ECDCCCC3D0AD7233C17B7D13877CC4E
S11303202B329595E6241FB14F0A000020410000AE
S1130330C84200401C4620BCBE4CCA1B0E5AAEC567
S11303409D7411241FBECFEFD8E0DEBFCDBF12E0F5
S1130350A0E0B1E0E4E3FBE402C005900D92AA360C
S1130360B107D9F716E0AAE6B2E001C01D92A33D99
S1130370B107E1F70E94C8190C9498250C94000069
S1130380FC01318120E0808190E0282B392B822FE1
S1130390932F0895FC01238130E040E050E0542F76
S11303A0432F322F2227828190E0A0E0B0E0282B57
S11303B0392B4A2B5B2B542F432F322F2227818139
S11303C090E0A0E0B0E0282B392B4A2B5B2B542F74
S11303D0432F322F2227808190E0A0E0B0E0282B29
S11303E0392B4A2B5B2B622F732F842F952F089563
S11303F0FC01608371830895FC014193BB27A72FFF
S1130400962F852F8193CB01AA27BB278083472F63
S113041055276627772741830895CF93DF93EC010F
S11304204115510579F020E030E0FE01E20FF31FA1
S1130430DB01A20FB31F8C9180832F5F3F4F4217C4
S1130440530799F7DF91CF910895FC0161934150CF
S11304505040E1F70895CF93DF93EC01A0E0B0E0C2
S1130460FE01EA0FFB1F808190E0FB01EA0FFB1FF6
S11304702081FC01E21BF1099F014150504019F019
S11304801196309769F3822F932FDF91CF910895BE
S1130490EF92FF920F931F93CF93DF93EC010F2EF4
S11304A0FEEFEF2EFFEFFF2EFFEF0F2FFFEF1F2FBB
S11304B0F02DE40EF51E061F171F8B899C89AD894C
S11304C0BE890297A109B109E816F9060A071B07B4
S11304D028F020E030E040E050E010C029853A8563
S11304E040E050E0C801B7010E94B8202FA138A510
S11304F049A55AA5260F371F481F591F622F732F6E
S1130500842F952FDF91CF911F910F91FF90EF9042
S11305100895CF92DF92EF92FF920F931F93CF93A0
S1130520DF938C01EB01CB014A960E94C0016C0160
S1130530EE24FF24F8018081833069F4CE014496CF
S11305400E94C001A0E0B0E0DC0199278827C82AF6
S1130550D92AEA2AFB2A6C2D7D2D8E2D9F2DDF9121
S1130560CF911F910F91FF90EF90DF90CF9008955E
S1130570CF92DF92EF92FF920F931F93CF93DF936B
S11305808C01EB0169017A01CB014A96B9010E9401
S1130590F801F8018081833041F4970144275527FD
S11305A0CE014496B9010E94F801DF91CF911F91C9
S11305B00F91FF90EF90DF90CF900895CF93DF934A
S11305C0AC01FC01A081B1811097D1F1FD018191B1
S11305D0813218F08A33D9F705C08A3319F020E044
S11305E030E030C02C91822F80538A3060F4CD01EA
S11305F00296E817F90739F4822F90E0C09718168D
S11306001906CCF41DC0C0E0D1E099912D91892F39
S113061081568A3108F49052822F81568A3108F427
S11306202052992319F0921781F30AC0AE17BF071D
S113063039F480E090E0DA01ED93FC939C0102C070
S11306402FEF3FEF822F932FDF91CF9108950F93D8
S11306501F93CF93DF93EC018B01009799F0E8810E
S1130660F981309779F08081882361F02A813B8178
S1130670858196812817390729F481810E94571CA6
S113068080FF0CC080E090E029E0F8019183808332
S1130690822FDF91CF911F910F91089588819981C5
S11306A020E0F3CF8F929F92AF92BF92CF92DF92CE
S11306B0EF92FF920F931F93CF93DF93EC018B8103
S11306C08823E1F10F2EFFE2CF2EDD24F02DCC0E96
S11306D0DD1E2BA53CA54DA55EA58981B60101E0D3
S11306E010E00E94801D882311F081E028C01B8245
S11306F0EBA4FCA40DA51EA52F89388D498D5A8D18
S11307008F8D98A1A9A1BAA147015801881A990A05
S1130710AA0ABB0A82169306A406B50678F48A814F
S1130720823061F42E0D3F1D401F511F8981B60197
S113073001E010E00E94801D80E001C080E0DF91B4
S1130740CF911F910F91FF90EF90DF90CF90BF90CA
S1130750AF909F908F900895BF92CF92DF92EF92C7
S1130760FF920F931F93CF93DF93EC016A017B01F8
S11307708BA59CA5ADA5BEA584179507A607B707AD
S113078011F4BB241CC0CE010E945203B82E88234E
S1130790B1F4BE01615D7F4F8981A701960101E03B
S11307A010E00E94271D882331F0CC24CA94DC2C4D
S11307B07601BB24B394CBA6DCA6EDA6FEA68B2DB6
S11307C0DF91CF911F910F91FF90EF90DF90CF9029
S11307D0BF900895BF92CF92DF92EF92FF920F9352
S11307E01F93CF93DF93FC017A018B01C081D181E8
S11307F0423051056105710508F4BAC08B899C89A2
S1130800AD89BE89481759076A077B0708F0B0C04D
S11308108881823009F461C0833009F480C081305A
S113082009F0A6C0CA01969587956C01C40ED51E21
S1130830A601452F5527469560E070E08F8D98A15D
S1130840A9A1BAA1480F591F6A1F7B1FCE010E949C
S1130850AC03882309F091C0C6019170FE01E80F32
S1130860F91FB7A40894C11CD11CA601452F552714
S1130870469560E070E08F8D98A1A9A1BAA1480FB8
S1130880591F6A1F7B1FCE010E94AC03882309F005
S113089074C02B2D30E0C6019170FE01E80FF91FE2
S11308A097A580E0282B392BC70181709070892B84
S11308B059F0C901929582958F7089279F70892775
S11308C09C0140E050E05DC0C901A0E0B0E09C01A3
S11308D0AD013F704070507054C0452F562F672FA4
S11308E077278F8D98A1A9A1BAA1480F591F6A1F14
S11308F07B1FCE010E94AC03882309F03EC0D801BF
S1130900C701880F991FAA1FBB1F91708F968C0F68
S11309109D1F0E94C0019C0140E050E032C06894D9
S113092016F876956795579547951694D1F78F8D58
S113093098A1A9A1BAA1480F591F6A1F7B1FCE0114
S11309400E94AC038823C9F4D801C701880F991FFA
S1130950AA1FBB1F880F991FAA1FBB1F91708F96D8
S11309608C0F9D1F0E94CA019B01AC015F7009C0DE
S113097021E030E040E050E004C02FEF3FEF4FEFC4
S11309805FEF622F732F842F952FDF91CF911F91EB
S11309900F91FF90EF90DF90CF90BF9008952F922A
S11309A03F924F925F926F927F928F929F92AF92FB
S11309B0BF92CF92DF92EF92FF920F931F93DF9338
S11309C0CF9300D000D000D0CDB7DEB79E838D8307
S11309D05A016B01DC014D905C904030B0E05B0744
S11309E0B0E26B07B0E07B0708F0EBC0DB01CA01A3
S11309F08F719070A070B0700097A105B10509F0D7
S1130A00E0C0ED81FE8146875787608B718B6680DD
S1130A10778080849184611471048104910489F540
S1130A20D2018C91833058F09396ED90FD900D9106
S1130A301C919697E114F1040105110521F5A60115
S1130A409501689414F8569547953795279516940B
S1130A50D1F7F20187819085A0E0B0E0281739072B
S1130A604A075B0708F0ADC083A194A1A5A1B6A174
S1130A70ED81FE81868B978BA08FB18F84017301EA
S1130A8073C084017301D20119968D919C911A97B8
S1130A90A0E0B0E03C014D01052E59E0660C771C46
S1130AA0881C991C5A95D1F7502DA614B704C80474
S1130AB0D90408F44CC02D803E8088279927DC0196
S1130AC086199709A809B90989839A83AB83BC83DA
S1130AD0A618B708C808D908822D932DB801A70114
S1130AE00E94EA037B018C019FEFE9169FEFF90650
S1130AF09FEF09079FEF190711F481E063C0A2E09B
S1130B00EA16F1040105110508F45BC0F2018389BA
S1130B109489A589B689E816F9060A071B0708F01F
S1130B2050C029813A814B815C812A0D3B1D4C1DAB
S1130B305D1DDA01C901860D971DA81DB91D861515
S1130B409705A805B90518F059016A01C5CFC20176
S1130B50B801A7010E944802AD81BE8156966D93EB
S1130B607D938D939C935997ED81FE81E28AF38A5C
S1130B70048B158B26893789408D518D21153105BC
S1130B8041055105F1F0D601C501072E79E0B6956E
S1130B90A795979587957A95D1F7702D820F931F16
S1130BA0A41FB51FED81FE81868B978BA08FB18F1B
S1130BB0C50191708F96840D951D938F828F80E06F
S1130BC001C082E026960FB6F894DEBF0FBECDBFFB
S1130BD0CF91DF911F910F91FF90EF90DF90CF9015
S1130BE0BF90AF909F908F907F906F905F904F9049
S1130BF03F902F9008954F925F926F927F929F92B1
S1130C00AF92BF92CF92DF92EF92FF920F931F9316
S1130C10CF93DF93EC015A016B0128013901423073
S1130C2051056105710508F4EDC08B899C89AD8976
S1130C30BE89481759076A077B0708F0E3C0888113
S1130C40823009F476C0833009F496C0813009F00B
S1130C50D9C0CA01969587958C01040F151FA80168
S1130C60452F5527469560E070E08F8D98A1A9A186
S1130C70BAA1480F591F6A1F7B1FCE010E94AC0303
S1130C80982E882309F0C1C0980131700F5F1F4F5F
S1130C90CC24DD24C394CA20DB20C114D10451F038
S1130CA0FE01E20FF31F87A58F70942D9295907F1C
S1130CB0982B01C0942DFE01E20FF31F97A781E04A
S1130CC08B83A801452F5527469560E070E08F8DF2
S1130CD098A1A9A1BAA1480F591F6A1F7B1FCE0171
S1130CE00E94AC03982E882309F08FC0A80151708C
S1130CF0CD2861F0D301C201689413F8B695A79585
S1130D00979587951694D1F7E82E0CC0FE01E40F51
S1130D10F51F27A5207FBB27A72D962D852D8F7026
S1130D20E22EE82AFE01E40FF51FE7A681E08B839B
S1130D306CC0452F562F672F77278F8D98A1A9A1B7
S1130D40BAA1480F591F6A1F7B1FCE010E94AC0332
S1130D50982E882309F059C0D601C501880F991F20
S1130D60AA1FBB1F91708F968C0F9D1FB2010E940A
S1130D70F80181E08B8349C0689416F876956795ED
S1130D80579547951694D1F78F8D98A1A9A1BAA12B
S1130D90480F591F6A1F7B1FCE010E94AC03982E77
S1130DA0882399F50F2EFFEFEF2EFFEFFF2EFFEFB5
S1130DB00F2FFFE01F2FF02DE420F520062117212F
S1130DC0D601C501880F991FAA1FBB1F880F991F41
S1130DD0AA1FBB1F91708F966E01C80ED91EC60143
S1130DE00E94CA01607070708070907FE62AF72AB2
S1130DF0082B192BC601B801A7010E94FC0181E050
S1130E008B8303C09924689491F8892DDF91CF9145
S1130E101F910F91FF90EF90DF90CF90BF90AF9014
S1130E209F907F906F905F904F9008954F925F9244
S1130E306F927F928F929F92AF92BF92CF92DF92E6
S1130E40EF92FF920F931F93CF93DF938C012A01AC
S1130E503B01FC01C081D18141155105610571053A
S1130E6099F48B849C84AD84BE8481149104A10480
S1130E70B10471F18B899C89AD89BE898816990664
S1130E80AA06BB0628F528C00E94EA039B01AC0110
S1130E90623071058105910528F421E030E040E0DD
S1130EA050E0FBC06F3FFFEF7F07FFEF8F07FFEFBF
S1130EB09F0709F4F2C08B899C89AD89BE892817E4
S1130EC039074A075B0708F4E8C05301420104C02C
S1130ED088249924540183948F859889A989BA898F
S1130EE00097A105B10509F4D4C084149504A6049F
S1130EF0B70409F049C0750164010894C11CD11CF0
S1130F00E11CF11C8B899C89AD89BE89C816D90660
S1130F10EA06FB0628F0CC24DD2476016894C1F8A7
S1130F20C801B701A6010E94EA039B01AC0161302C
S1130F3071058105910509F4B0C02F3F8FEF380783
S1130F408FEF48078FEF580709F4A7C02115310523
S1130F5041055105A1F02B853C854D855E852230E8
S1130F6031054105510580F08B899C89AD89BE8985
S1130F70281739074A075B0708F4A4C005C0C11441
S1130F80D104E104F104E9F5750164010894C11C7C
S1130F90D11CE11CF11C8B899C89AD89BE89C816C2
S1130FA0D906EA06FB0660F0E2E08E169104A1047D
S1130FB0B10408F46EC0CC24DD2476016894C1F831
S1130FC0C801B701A6010E94EA039B01AC016115A7
S1130FD0710581059105A9F06130710581059105BF
S1130FE009F45BC06F3FFFEF7F07FFEF8F07FFEF51
S1130FF09F0709F452C08C149D04AE04BF0431F65B
S113100048C0CE01B701A6010FEF1FEF2FEF3FEF4E
S11310100E94FB05882389F541145104610471047D
S113102049F0CE01B301A201970186010E94FB059C
S1131030882319F5CB86DC86ED86FE862F853889D4
S113104049895A898B899C89AD89BE890297A109EE
S1131050B10982179307A407B50748F0DA01C9015B
S11310600197A109B1098F87988BA98BBA8B8C81C1
S113107081608C83A701960110C0813029F021E0A2
S113108030E040E050E009C02FEF3FEF4FEF5FEF5B
S113109004C020E030E040E050E0622F732F842F42
S11310A0952FDF91CF911F910F91FF90EF90DF90DB
S11310B0CF90BF90AF909F908F907F906F905F90F4
S11310C04F90089549015A015FCF2F923F924F925A
S11310D05F926F927F928F929F92AF92BF92CF92C4
S11310E0DF92EF92FF920F931F93DF93CF93CDB7CD
S11310F0DEB728970FB6F894DEBF0FBECDBF988732
S11311008F833B01DC018D909C9011971E962D914D
S11311103D914D915C9151975696ED90FD900D91B6
S11311201C915997E114F1040105110509F43AC120
S1131130AA24BB2465016894A5F8A20EB31EC41E9C
S1131140D51EB0E0AB16B0E0BB06B0E2CB06B0E013
S1131150DB0608F027C1D601C5019170A070B070FC
S11311600097A105B10509F00AC1D801C70101968C
S1131170A11DB11DEF81F885868B978BA08FB18F50
S1131180E288F38804891589E114F1040105110545
S1131190F9F4A6019501689414F856954795379586
S11311A027951694D1F7D40117968D919C91189791
S11311B0A0E0B0E0281739074A075B0708F4DFC04E
S11311C0EF81F885168A178A108E118E84E0EFC09D
S11311D0D40119968D919C911A970197A0E0B0E0E3
S11311E0A6019501012E19E0569547953795279547
S11311F01A95D1F7102D82239323A423B5230097A6
S1131200A105B10509F0BBC0BF81BD83E885EE83AC
S11312108B2F9E2FB801A7010E94EA031B012C010A
S1131220623071058105910508F4BEC08FEF281660
S11312308FEF38068FEF48068FEF580609F4B6C0D3
S1131240F40183899489A589B689281639064A0642
S11312505B0608F481C0672851F4AF81B8855696BF
S11312601D921D921D921C92599784E0A0C0EF819B
S1131270F88542895389648975898D819E810E948C
S113128016071B012C01611571058105910511F4E7
S113129087E08DC0613071058105910509F484C032
S11312A08FEF28168FEF38068FEF48068FEF58061A
S11312B009F47CC0C4010E945203882309F076C05B
S11312C0C401B201A1010E94480269837A838B831D
S11312D09C83D4019B966D937D938D939C939E9751
S11312E00F2EFFE26F2E7724F02D680C791CC301BA
S11312F060E070E040E052E00E942502F401818544
S11313009285892B49F1EE24FF240BC00894E11C3B
S1131310F11CD40119968D919C911A97E816F9063F
S1131320A8F4970140E050E089819A81AB81BC81A7
S1131330280F391F4A1F5B1FD40111968C91B301EA
S113134001E010E00E94801D882301F3F4018185EF
S11313509285E816F90651F5AF81B88552962D921B
S11313603D924D925C925597C401B201A1010E9435
S11313704802EF81F885668B778B808F918FAF81E0
S1131380B8851E96AD92BD92CD92DC925197C5015F
S113139091708F96880D991D5B969C938E935A97A6
S11313A080E005C084E003C082E001C081E02896AB
S11313B00FB6F894DEBF0FBECDBFCF91DF911F9162
S11313C00F91FF90EF90DF90CF90BF90AF909F90E0
S11313D08F907F906F905F904F903F902F900895E3
S11313E0CF93DF93EC011B828FEF9FEFAFEFBFEF43
S11313F08BA79CA7ADA7BEA7CE010E94AC038823F0
S113140011F084E02AC0CE01835D9D4F0E94C0018B
S113141085559A4A11F083E020C08FA5893E21F0BA
S11314208B3E11F0883EC1F4CE018B599F4F64E08E
S113143071E043E050E00E942B02892B59F0CE0169
S11314408F579F4F68E071E045E050E00E942B0207
S1131450892B11F480E001C082E0DF91CF910895DF
S11314602F923F924F925F926F927F928F929F92B0
S1131470AF92BF92CF92DF92EF92FF920F931F939E
S1131480DF93CF93CDB7DEB729970FB6F894DEBFBD
S11314900FBECDBF6C01162F072F3A013F832E8359
S11314A0D9011D921C928887D9869D2DBE016F5F3C
S11314B07F4F0E9427038B83882309F0A0C1F60184
S11314C0F785FB83FF2309F09AC1D6011E968C9100
S11314D081FD03C0B7E0BB8392C1F6012089318945
S11314E042895389C301A0E0B0E0820F931FA41F77
S11314F0B51F82179307A407B50718F43901609440
S113150070946114710409F473C1212F302F1901EF
S1131510B6016E5D7F4F7D836C83D6015096ED904E
S1131520FD900D911C915397D801C7019170A07043
S1131530B0700097A105B10509F00AC1A80197018F
S1131540012E19E056954795379527951A95D1F7A9
S1131550102DE981FA818185928501972C0142221F
S113156053224114510409F059C0E114F104010556
S11315701105A9F4F601268137814085518521158D
S1131580310541055105F1F48885998540E050E025
S113159060E070E00E9416079B01AC010DC0D6010B
S11315A054964D915D916D917C915797888599855D
S11315B00E9416079B01AC01211531054105510517
S11315C009F416C1213031054105510529F482E0A1
S11315D0F60187878B8313C12F3FFFEF3F07FFEF90
S11315E04F07FFEF5F0731F481E0D6011F968C931C
S11315F08B8305C1F601248B358B468B578B8681F3
S11316009781A085B1850097A105B10539F4D6016C
S113161016962D933D934D935C931997F601868509
S11316208823F4F4E981FA81D60158962D913D91ED
S11316304D915C915B9781816C817D8101E010E02B
S11316400E94801D882329F081E0F60187878B831F
S1131650D6C0D6011E968C911E978F771E968C93BA
S113166009811A81F6014489558966897789C801F7
S11316700E9448029B01AC01611571058105910529
S113168031F482E0D6011F968C938B83B8C0C201DB
S1131690A0E0B0E04C015D01820E931EA41EB51EB5
S11316A07301EF2CFF24E694E114F10409F1F8012D
S11316B021853285C701840D951D2817390718F433
S11316C07901E418F508D80111968C91B101A501AE
S11316D0940187010E94801D882329F081E0F6018E
S11316E087878B838CC08701102F0027110F50C070
S11316F0F601808D918DA28DB38D88159905AA056B
S1131700BB05F9F020893189428953898285938503
S1131710A485B585281739074A075B0790F4D801D3
S113172011968C916C817D81A501940101E010E0FA
S11317300E94271D882329F081E0F60187878B8387
S11317405EC0D60158968D929D92AD92BC925B97E5
S1131750F6012089318942895389C901917060E079
S113176072E0681B790B83016615770508F48B0119
S1131770C901917082968C0D9D1DB101A8010E9432
S11317800D02D6011E968C911E9780681E968C932E
S1131790601A710AEE81FF8180819181800F911F0F
S11317A091838083C801A0E0B0E0F60120893189EB
S11317B042895389820F931FA41FB51F808B918B7D
S11317C0A28BB38B22853385448555858217930775
S11317D0A407B50710F4DA01C901F60182879387DB
S11317E0A487B5876114710419F0200E311E95CEBB
S11317F0D6011E968C911E9780641E968C938B81C5
S113180029960FB6F894DEBF0FBECDBFCF91DF91FE
S11318101F910F91FF90EF90DF90CF90BF90AF900A
S11318209F908F907F906F905F904F903F902F90FC
S11318300895AF92BF92DF92EF92FF920F931F939E
S1131840DF93CF9300D0CDB7DEB77C01BE016F5FCD
S11318507F4F0E942703D82E882309F0D2C0D701D6
S11318601E968C911E9786FFCCC08823CCF4E98108
S1131870FA81B7016E5D7F4F58962D913D914D9140
S11318805C915B97818101E010E00E94801D8823B8
S113189019F0DD24D394B5C0F70186858F77868748
S11318A0D7015C964D915D916D917C915F97898193
S11318B09A810E94AC03D82E882309F0A2C0F701B4
S11318C000A111A1F8013B96808180628083D70139
S11318D016962D913D914D915C9119978D919C9106
S11318E0B8010E94B802F701428553856485758565
S11318F0C8014C960E94FC01C801469640E050E0A5
S113190061E27CE40E94FC01C801429660E070E060
S11319100E94F801E981FA8181E08383A980BA8079
S1131920C5010E945203D82E882309F066C0D50150
S11319308C91833009F055C014968C91813009F054
S113194050C08501015D1F4FC80160E070E040E0B8
S113195052E00E942502C501835D9D4F65E57AEA48
S11319600E94F801C80142E552E561E671E40E9473
S1131970FC01C5018D5E9D4F42E752E761E471E6CB
S11319800E94FC01F5014785508961897289C5016E
S1131990895E9D4F0E94FC01D5011B964D915D917E
S11319A06D917C911E97C501855E9D4F0E94FC013F
S11319B0F501238D348D458D568D2F5F3F4F4F4F4D
S11319C05F4FD5019B962D933D934D935C939E97CA
S11319D011968C91B80101E010E00E94801DF50180
S11319E01482D50111968C9160E040E050E00E9491
S11319F0E71D882311F0DD24D394F70186858F7BBE
S1131A0086878D2D0F900F90CF91DF911F910F91AD
S1131A10FF90EF90DF90BF90AF9008950F931F93C6
S1131A20DF93CF9300D0CDB7DEB78C010E94190CA1
S1131A30882359F4C801BE016F5F7F4F0E942703BA
S1131A40882319F4F801118210820F900F90CF911E
S1131A50DF911F910F9108952F923F924F925F92C1
S1131A606F927F928F929F92AF92BF92CF92DF92AA
S1131A70EF92FF920F931F93DF93CF93CDB7DEB70F
S1131A806C970FB6F894DEBF0FBECDBF7B01B42EAA
S1131A90DB011D921C920E94DE028C01992314F436
S1131AA08BE085C2FC01EE0FFF1FE459FD4FC0809F
S1131AB0D180C114D10411F48CE079C2F701D18230
S1131AC0C0820F2EFEEFFF2EF02DFB20D6018C914D
S1131AD0882361F011968C910E94571C80FD06C0EA
S1131AE0FF2009F461C282FD5DC25EC2F60110826C
S1131AF00183802F0E945E1C80FF02C083E057C2D6
S1131B00FF2011F082FD4EC2C60140E050E060E0CB
S1131B1070E00E94F009823021F088249924540155
S1131B2046C07E010894E11CF11C57010EEB11E044
S1131B30662477244301C8018F96F601E80FF91F44
S1131B408481882319F4C401B30104C0CF01089629
S1131B500E94CA01D5016D937D938D939D935D0180
S1131B60005F1F4FB1E00E3F1B0729F70F2EF3E074
S1131B707F2EF02D8E010F5E1F4FF7018080918024
S1131B80A280B38081149104A104B10411F4872DBF
S1131B9007C0C601B501A4010E94F009823038F0E3
S1131BA024E030E0E20EF31EE016F10631F7843053
S1131BB011F481E0FCC1823008F0F8C1C601CA9674
S1131BC00E94C0018050924009F0F0C1C6018B5BB5
S1131BD09F4F0E94C0017C0100E010E0E114F10479
S1131BE00105110539F4C6018D5A9F4F0E94CA019F
S1131BF07B018C01D6015796ED92FD920D931C93B7
S1131C005A97DF967C90DF9712967C921297872DD5
S1131C108150823008F0CAC1DC968C91DC97282F61
S1131C2030E01A963C932E9319972115310509F447
S1131C30BDC1C901019782239323892B09F0B6C141
S1131C40C601805C9F4F0E94C0019C8F8B8FF60160
S1131C50908787838B8D9C8D8F709070892B09F072
S1131C60A5C1C6018E5B9F4F0E94C0011C01442484
S1131C705524211431044104510439F4C601815B13
S1131C809F4F0E94CA011B012C01C601CD960E94E0
S1131C90C0019E8B8D8B892B09F488C1272D30E0E0
S1131CA040E050E0C801B7010E94B820698B7A8BEC
S1131CB08B8B9C8B4D895E899A0140E050E02F8B81
S1131CC0388F498F5A8F8B8D9C8D929582958F700A
S1131CD089279F708927A0E0B0E0820F931FA41F7B
S1131CE0B51FE988FA880B891C89E80EF91E0A1FBA
S1131CF01B1F2E143F044006510608F457C1C201AD
S1131D00B1016E197F09800B910BD60119962D91A3
S1131D103C911A9740E050E00E94D720822F932FE5
S1131D20A42FB52F0097A105B10509F43FC1863F43
S1131D30EFEF9E07EFEFAE07EFE0BE0728F40F2E9C
S1131D40F3E07F2EF02D01C07724863FFFEF9F073D
S1131D50F0E0AF07F0E0BF0718F47724689471F857
S1131D60863F2FE0920720E0A20720E0B20708F4A4
S1131D7037C1772009F41AC10296A11DB11DF601DD
S1131D80838B948BA58BB68BD6015B968D929D929B
S1131D90AD92BC925E978F89988DA98DBA8D880D6E
S1131DA0991DAA1DBB1D878F90A3A1A3B2A3D8011F
S1131DB0C701880D991DAA1DBB1D87A390A7A1A7C4
S1131DC0B2A7F3E07F1639F5C601875A9F4F0E94E8
S1131DD0C001892B09F0EAC0D60117968D919C9118
S1131DE01897892B09F0E2C0C601855A9F4F0E94BB
S1131DF0CA01F60163A374A385A396A38389948976
S1131E00A589B689880F991FAA1FBB1F880F991F20
S1131E10AA1FBB1F45C0D60117968D919C91189798
S1131E20892B09F4C3C05F968D919D910D90BC914F
S1131E30A02D29893A894B895C89820F931FA41F9D
S1131E40B51FF60183A394A3A5A3B6A3F2E07F165E
S1131E5051F4F60183899489A589B689880F991F5D
S1131E60AA1FBB1F1DC0D60153962D913D914D91C4
S1131E705C915697DA01C901880F991FAA1FBB1FED
S1131E80820F931FA41FB51FB695A79597958795A5
S1131E902170307040705070820F931FA41FB51FC3
S1131EA081509E4FAF4FBF4F072E79E0B695A7954F
S1131EB0979587957A95D1F7702DF6012789308DFE
S1131EC0418D528D281739074A075B0708F46EC005
S1131ED08FEF9FEFAFEFBFEF8787908BA18BB28B14
S1131EE083879487A587B68780E88483F3E07F1689
S1131EF009F047C0C601815A9F4F0E94C001019753
S1131F0009F03FC0B501A4014F5F5F4F6F4F7F4F92
S1131F10C6010E94AC038823A1F5D60114961C9235
S1131F20C601835D9D4F0E94C00185559A4A49F5BB
S1131F30C6018F960E94CA0162557245814691443A
S1131F4001F5C6018D5E9D4F0E94CA01625772471A
S1131F5081449146B1F4C601895E9D4F0E94CA0135
S1131F60D6011F966D937D938D939C935297C601D2
S1131F70855E9D4F0E94CA01F60163877487858739
S1131F809687D6017C9280916E0290916F020196A1
S1131F9090936F0280936E0216969C938E9315977E
S1131FA080E005C08AE003C080E001C08DE06C964B
S1131FB00FB6F894DEBF0FBECDBFCF91DF911F9156
S1131FC00F91FF90EF90DF90CF90BF90AF909F90D4
S1131FD08F907F906F905F904F903F902F900895D7
S1131FE00296A11DB11DF601838B948BA58BB68B34
S1131FF0D6015B968D929D92AD92BC925E978F892D
S1132000988DA98DBA8D880D991DAA1DBB1D878F2A
S113201090A3A1A3B2A3D801C701880D991DAA1D3D
S1132020BB1D87A390A7A1A7B2A777247394F3CE6F
S11320302F923F924F925F926F927F928F929F92D4
S1132040AF92BF92CF92DF92EF92FF920F931F93C2
S1132050DF93CF93CDB7DEB7E7970FB6F894DEBF23
S11320600FBECDBF9CAB8BAB7CA76BA7892B19F4A0
S113207089E08AAB3FC34F734DA7CE018B96BE0157
S1132080675D7F4F0E942C0D8AAB882309F02EC315
S113209089A49AA49A828982EBA4FCA403C008941C
S11320A0E11CF11CD7018C918F32C9F38C35B9F343
S11320B01F82188619861A868C91803278F480E8FB
S11320C088A7CE01019640E050E060E070E00E94F5
S11320D0CF04282F882309F4CFC0D4C00F2EFDE1EC
S11320E02F2E3324F02D2C0E3D1EAA24BB2488E071
S11320F090E0482E792E8BE090E0682E592EC10195
S113210060E270E04BE050E00E942502D5018501B9
S113211068E070E006C0842D972DDC01862D952D96
S1132120BC01F701E00FF11F40810F5F1F4F4132E7
S113213008F445C04F3211F04C3569F4F701E00F53
S1132140F11F03C00F5F1F4F319680818F32D1F38F
S11321508C35C1F334C04E3219F0A617B70738F0E6
S11321606B30710509F4E6C24E32A9F2E3C244238E
S113217054F4842F8F77E9EEF1E0E80FF11D4081EC
S1132180242F30E002C0242F30E02232310509F43C
S1132190D1C2EEE0F1E031968081882329F090E00D
S11321A028173907C1F7C6C2842F81568A3108F42B
S11321B04052F101EA0FFB1F40831196B2CFAB2BC3
S11321C009F4B8C28D8D853E11F4B5E0BD8F41325E
S11321D010F080E001C084E088A7C980DA80CE01D5
S11321E0019640E050E060E070E00E94CF04282FA8
S11321F0882339F54F89588D698D7A8DC6010E94DF
S1132200AC03282F8823E9F4EB8DFC8D808188238F
S113221009F4C3C283858F738D83838583FD09C0CD
S1132220CF01B1014BE050E00E942B02892B09F44D
S11322307BC2CE010196B5010E946508282F882330
S1132240C9F288A52430F1F482FF72C224E01AC0D6
S11322508D8184FF6DC2E00EF11E8F859889917087
S11322608F96B401680F791FC4010E9489026F839D
S1132270788789879A8743CF88A5882314F426E032
S113228001C02AA9EDA54E2F50E0CA018C719070AF
S1132290892B09F420C1222309F458C0243009F001
S11322A07BC109811A81CE01019640E050E060E0D3
S11322B070E00E94CF04282F8823E9F47E0108945B
S11322C0E11CF11C4F89588D698D7A8DC8010E94DB
S11322D0AC03282F882379F4EB8DFC8DE081E53E57
S11322E079F0EE2369F0C70161E070E00E946508AF
S11322F0282F882339F3243039F1222309F04CC1E3
S11323004F89588D698D7A8DC8010E94AC03282F9E
S1132310882309F041C18B8D9C8D60E070E040E220
S113232050E00E9425028B8D9C8DBE01635E7F4F21
S11323304BE050E00E940D0281E0D80113968C938B
S1132340BDA5B860BDA709C027E026C18D818171F4
S113235011F027E021C1E2FDEFC1EDA5E3FFCBC001
S11323600B8D1C8D89A59AA5B8010E9489024B0189
S11323705C01C8010E9640E050E061E27CE40E94FA
S1132380FC01EB8DFC8D80E283876B8D7C8D89A5B0
S11323909AA520E030E040E050E00E94B8028B8D26
S11323A09C8D4C9640E050E060E070E00E94FC019F
S11323B0E9A5FAA581E0838381149104A104B10401
S11323C009F496C0E9A5FAA583A594A5A5A5B6A583
S11323D08EA79FA7A8ABB9AB69807A8092E08916D3
S11323E09104A104B10408F474C0F30183899489AD
S11323F0A589B68988169906AA06BB0608F069C09D
S1132400182D092D5A2C4B2C1E010894211C311C0B
S1132410C101412F502F652D742D0E94EA036B01D9
S11324207C01611571058105910509F487C161304D
S113243071058105910509F44CC08FEFC8168FEF23
S1132440D8068FEFE8068FEFF80611F421E0A4C058
S1132450C301412F502F652D742D00E010E020E0C2
S113246030E00E94FB05282F882309F095C0D30192
S11324701F962D913D914D915C91529753968D915C
S11324809D910D90BC91A02D0297A109B109281727
S113249039074A075B0768F4DA01C9010196A11DEF
S11324A0B11DF3018787908BA18BB28B84818160EE
S11324B08483F30183899489A589B689C816D906CA
S11324C0EA06FB0608F03AC11C2D0D2D5E2C4F2C9C
S11324D09FCF22E061C0222309F05EC08D8184FF7A
S11324E002C024E059C0E1FF41C180FD43C13EC1A7
S11324F0FDA5F064FDA7E9A4FAA4F70183A594A5BA
S1132500A5A5B6A5EBA9FCA9848F958FA68FB78F37
S11325100B8D1C8D11A300A3C701B8010E94890271
S1132520ABA9BCA916966D937D938D939C93199733
S1132530C8014C960E94CA01EBA9FCA96287738763
S113254084879587F182E082D70115968D919C91BD
S1132550169793838283BDA5B6871786EBA9FCA93A
S1132560108E118E128E138EABA9BCA950961D929B
S11325701D921D921C9253971D01E2E2F0E02E0E73
S11325803F1EC10160E070E040E052E00E9425027D
S1132590FDA5F5FD03C0AEC02AABA8C0EBA9FCA9FC
S11325A082859385A485B5850097A105B10509F4B5
S11325B0A1C0808B918BA28BB38BE9A5FAA58185F1
S11325C09285A0E0B0E04C015D01072E79E0880C13
S11325D0991CAA1CBB1C7A95D1F7702DABA9BCA978
S11325E016964D915D916D917C9119971A96CD90A7
S11325F0DD90ED90FC901D978C149D04AE04BF04F7
S113260008F0BAC0ADABBEAB44245524320148181F
S113261059086A087B08C818D908EA08FB08BAA947
S1132620BFAB8DA99EA90E94EA03AB01BC01423055
S113263051056105710510F482E001C08FA94F3F77
S1132640EFEF5E07EFEF6E07EFEF7E07B9F0882339
S1132650B1F497018601040D151D261D371DD901FE
S1132660C801880D991DAA1DBB1D88169906AA06C6
S1132670BB0608F081C068017901D3CF81E0ABA922
S1132680BCA954964D935D936D937C9357978AABF5
S11326902DC089A59AA50E9448026115710581057E
S11326A0910519F4B2E0BAAB21C0A7019601012E3D
S11326B019E056954795379527951A95D1F7102D1A
S11326C0260F371F481F591FEBA9FCA9208F318FF4
S11326D0428F538FE9A5FAA58181B10101E010E091
S11326E00E94271D882331F0F1E0FAABABA9BCA905
S11326F01D921C928AA9E7960FB6F894DEBF0FBE0E
S1132700CDBFCF91DF911F910F91FF90EF90DF909C
S1132710CF90BF90AF909F908F907F906F905F907D
S11327204F903F902F90089588A582FF91CDA4CD1E
S113273025E0A8CD26E0A6CD28E02ECF89A59AA530
S11327404EA55FA568A979A90E94AC03282FE9A525
S1132750FAA5D501C4010197A109B109838794871A
S1132760A587B687222309F4C3CE16CFBDA5B3FD32
S1132770BFCEC1CE27E010CFEBA9FCA9448B558B6B
S1132780668B778BD701C6019170A070B0700097EB
S1132790A105B10509F4AECF7CCF88A555CD1F9313
S11327A0DF93CF9300D000D000D0CDB7DEB79C83A9
S11327B08B837E836D83142F7A836983CE01019684
S11327C00E94DE02992314F48BE025C0FC01EE0F75
S11327D0FF1FE459FD4F0190F081E02D309709F07F
S11327E01082EB81FC81309709F01082FC01EE0F1E
S11327F0FF1FE459FD4F8B819C81918380831123BA
S113280011F480E008C0CE010596BE016D5F7F4FD4
S113281040E00E942C0D26960FB6F894DEBF0FBE42
S1132820CDBFCF91DF911F9108951092B90080E23E
S11328308093B80084E08093BC000895982F84EAC4
S11328408093BC0020EA30E0ECEBF0E009C02150BA
S1132850304031F480917B02816080937B02089543
S1132860808188231CF02115310589F79093BB00E2
S113287084E88093BC0020EA30E0ECEBF0E009C08F
S11328802150304031F480917B02826080937B023E
S11328900895808188231CF02115310589F7089556
S11328A084E98093BC0008958093BB0084E88093FE
S11328B0BC0020EA30E0ECEBF0E009C021503040ED
S11328C031F480917B02846080937B02089580813F
S11328D088231CF02115310589F70895EF92FF92A2
S11328E00F931F93CF93DF937C018B0188E70E94A2
S11328F01E1480E40E9454140115110561F0C0E017
S1132900D0E0F701EC0FFD1F80810E945414219642
S1132910C017D107B0F30E945014DF91CF911F91DB
S11329200F91FF90EF900895FF920F931F93CF9311
S1132930DF93182FF92E062F88E70E941E1480E0DB
S11329400E945414002351F0212F3F2DE901899155
S11329500E9454149E01211B2017C8F30E94501496
S1132960DF91CF911F910F91FF900895DF93CF9343
S113297000D000D0CDB7DEB7982F8631B8F46830D8
S1132980A8F486E0989FC0011124E0E7F2E0819367
S11329906083262F2055298321E22A838B838FE7A6
S11329A08C83CE01019664E00E9494140F900F90E2
S11329B00F900F90CF91DF91089580E060E00E9426
S11329C0B61408956F927F928F929F92AF92BF92A6
S11329D0CF92DF92EF92FF920F931F93DF93CF93E7
S11329E0CDB7DEB760970FB6F894DEBF0FBECDBF8C
S11329F0982F893049F18A3020F4883009F059C081
S1132A0007C08A3009F442C08D3009F052C04BC06F
S1132A100F2EF0E7EF2EF2E0FF2EF02DF70181915B
S1132A208F0190916601891B60810E94B61480E237
S1132A300E94E214F701808190916601891BF801DC
S1132A4060810E94B61447C1609170028091660152
S1132A5090E0AC01440F551F440F551F9A01260FF7
S1132A60311D88279927841B950B4596281739070C
S1132A7038F4862F840F609171020E94B6142BC122
S1132A8085E1609171020E94B61425C160917102C2
S1132A90673008F020C180916601680F8091700250
S1132AA00E94B61418C180E0609171020E94B614AD
S1132AB012C1809170028A3708F00DC1903208F477
S1132AC00AC1192F1052A8EDB2E09D012F5F3F4FAC
S1132AD0F9018491181708F430C084918F3F09F4E8
S1132AE0FAC0FD018491012F10E090E080978017D7
S1132AF0910789F4A9010AC0FD01E20FF31FE491D3
S1132B008E2F90E080970817190731F4FA01849109
S1132B108F3F91F4E0C060E06F5F862F90E09C01EE
S1132B20220F331FC9010196AD01480F591FFA0145
S1132B3084918F3F09F7CFC0182F809166018230AE
S1132B4009F0AAC00F2EF5E0AF2EBB24F02DAC0E79
S1132B50BD1E86E0189FC00111248C0108591F4F27
S1132B60650188249924A1E0B0E00F2EF1E1EF2E55
S1132B70FF24F02DEC0EFD1EF60111821082F801E7
S1132B808491A401BD01682E7724C301042E02C0E0
S1132B90959587950A94E2F780FF1AC0CA01880FB9
S1132BA0991F9D0102C0220F331F8A95E2F7C901C4
S1132BB0F60120813181822B932B9D01062E02C0C8
S1132BC0220F331F0A94E2F7822B932B9183808385
S1132BD04F5F5F4F6E5F7F4F48305105B1F622E083
S1132BE030E0C20ED31E0F5F1F4FCE14DF0409F076
S1132BF0C3CF88E70E941E1480E40E945414750118
S1132C00F7011081812F0E945414812F0E945414C3
S1132C1022E030E0E20EF31EEC14FD0489F70E947A
S1132C205014E0E7F2E0919180818F54898381E22E
S1132C308A839B838FE78C83CE01019664E00E9494
S1132C40941488E70E941E1480E40E945414F50131
S1132C501181812F0E945414812F0E94541422E068
S1132C6030E0A20EB31EAC14BD0489F70E945014C8
S1132C7001E712E0F80180818055898382918F01F8
S1132C80845F8B83CE01019664E00E949414F80162
S1132C908081845F80831FC088E70E941E1480E4C3
S1132CA00E94541486E0189FC00111248C01085915
S1132CB01F4FFF24F80184910E945414F3940F5F72
S1132CC01F4FF6E0FF16B1F70E945014E0E7F2E060
S1132CD080818A5F808360960FB6F894DEBF0FBE52
S1132CE0CDBFCF91DF911F910F91FF90EF90DF90B7
S1132CF0CF90BF90AF909F908F907F906F900895EA
S1132D00CF93DF93EC018881882331F021960E94D0
S1132D10E21488818823D1F7DF91CF910895EF924F
S1132D20FF921F93DF93CF93CDB7DEB7C058D04047
S1132D300FB6F894DEBF0FBECDBFFE01319680E81A
S1132D40DF011D928A95E9F710E07F0180E0612F91
S1132D500E94B614C70160E870E00E946E141F5F01
S1132D601830A1F70E94DD14C058DF4F0FB6F89455
S1132D70DEBF0FBECDBFCF91DF911F91FF90EF90CB
S1132D8008951F93DF93CF93CDB7DEB76C970FB63B
S1132D90F894DEBF0FBECDBF182F0E94151480E03B
S1132DA090E04CEE52E09E012F5F3F4FFA01E80F96
S1132DB0F91FE491D901A80FB91FEC9301968B3147
S1132DC09105A1F71C8FCE0101966CE10E94941429
S1132DD00E948F166C960FB6F894DEBF0FBECDBF5F
S1132DE0CF91DF911F9108951092C50083E38093E2
S1132DF0C40088E18093C10086E08093C2000895F6
S1132E00E0ECF0E080818823ECF78091C60008951F
S1132E10E7E6F1E04DE151E026EB31E04193E217C2
S1132E20F307E1F780E090E0A0E0B0E08093720265
S1132E3090937302A0937402B09375028093760208
S1132E4090937702A0937802B09379020895EF9259
S1132E50FF920F931F93CF93DF930E940817C0E054
S1132E60D0E007E611E00F2EF8E6EF2EF1E0FF2E9A
S1132E70F02D0E940017982F8D3029F08A3019F018
S1132E80C035D1058CF080916701843241F4809182
S1132E906801873421F4809169018035F1F00E9442
S1132EA0081720E030E01BC0843269F4F801808107
S1132EB0843221F0F7018081843249F40E9408179A
S1132EC020E030E00CC0F8018081843291F6F801F2
S1132ED0EC0FFD1F90832196CCCF21E030E0822FB0
S1132EE0932FDF91CF911F910F91FF90EF90089551
S1132EF02F923F924F925F926F927F928F929F9206
S1132F00AF92BF92CF92DF92EF92FF920F931F93F3
S1132F10DF93CF93CDB7DEB7C056D0400FB6F89449
S1132F20DEBF0FBECDBF87EB91E00E94F920609316
S1132F30720270937302809374029093750286EC0C
S1132F4091E00E94F9206093760270937702809357
S1132F5078029093790289ED91E00E94F92026E6A7
S1132F6036E646E650E40E9431200E946E1F6D96BC
S1132F707FAF6EAF6D976A30710524F46D961FAE06
S1132F801EAE6D97C0907202D0907302E0907402EE
S1132F90F0907502C701B60120E030E040E050E057
S1132FA00E942D2018160CF017C180907602909084
S1132FB07702A0907802B0907902C501B40120E0B4
S1132FC030E040E050E00E942D2018160CF004C1BF
S1132FD0C701B60120E030E048EC52E40E94061F2D
S1132FE00E946E1F2B013C0104E610E0049DB00119
S1132FF0059D700D149D700D1124882777FD809513
S1133000982F0E94A11F9B01AC01C701B6010E9429
S1133010A11E6B017C016093720270937302809312
S1133020740290937502C501B40120E030E048ECCD
S113303052E40E94061F0E946E1FA1966CAF7DAFE2
S11330408EAF9FAFA1976F96EEADFFAD6F970E9FBA
S1133050B0010F9F700D1E9F700D1124882777FDFE
S11330608095982F0E94A11F9B01AC01C501B4015A
S11330700E94A11E4B015C0160937602709377025B
S113308080937802909379028DB79EB70C970FB610
S1133090F8949EBF0FBE8DBF0DB71EB70F5F1F4FB5
S11330A01E010894211C311CF801318220828EE11A
S11330B091E09383828355824482C701B60120E064
S11330C030E040E752E40E94061F20E030E543EC84
S11330D057E40E9431200E94731FF80166837783AE
S11330E08087918785ED91E0938782870E943921BB
S11330F00DB71EB70F5F1F4F0F2EFFE1EF2EFF24FA
S1133100F02DEC0EFD1EF801F182E0828DE291E0DB
S1133110938382836F968EAD9FAD6F9795838483DF
S1133120C501B40120E030E040E752E40E94061FEC
S113313020E034E244E759E40E9431200E94731FE6
S1133140F801668377838087918787ED91E0938781
S113315082870E9439218DB79EB706960FB6F894E0
S11331609EBF0FBE8DBFEDB7FEB731968E01035CD7
S11331701F4F118300838CE391E0938382836D96C8
S11331808EAD9FAD6D97958384830E943921EDB7F1
S1133190FEB736960FB6F894FEBF0FBEEDBF0E9481
S11331A08F16C1010E94801680E062E00E94B6146E
S11331B0C7010E94801680E064E00E94B614C80132
S11331C00E94801620E533EC48EC50E0CA010197D8
S11331D0F1F721503040D1F7C05ADF4F0FB6F894C1
S11331E0DEBF0FBECDBFCF91DF911F910F91FF9036
S11331F0EF90DF90CF90BF90AF909F908F907F9093
S11332006F905F904F903F902F9008950F931F936E
S1133210DF93CF93CDB7DEB7C055D0400FB6F89447
S1133220DEBF0FBECDBF8E010F5F1F4FC80167E623
S113323071E00E940B21C80166E471E00E94FD2048
S113324068E471E00E940221282F392F232B09F012
S113325059C006E411E080E090E0B8010E94FD202E
S113326080E090E0B8010E94FD2080E090E0B80189
S11332700E94FD20BC0187EB91E00E940B2180E0BD
S113328090E0B8010E94FD20BC0185ED91E00E9410
S11332900B2180E090E0B8010E94FD20BC0186EC87
S11332A091E00E940B2180E090E0B8010E94FD2093
S11332B0BC0187ED91E00E940B2180E090E0B80111
S11332C00E94FD20BC0189ED91E00E940B2180E069
S11332D090E0B8010E94FD2080E090E0B8010E94D7
S11332E0FD2080E090E0B8010E94FD2080E090E0A5
S11332F0B8010E94FD2080E090E0B8010E94FD200A
S11333000E947817C05BDF4F0FB6F894DEBF0FBE84
S1133310CDBFCF91DF911F910F9108950F931F930C
S1133320DF93CF9300D000D0CDB7DEB78CE792E027
S11333306DE171E040E00E94CF138BEA94E06FE40A
S113334071E042E30E9418108823C9F40BEA14E0E8
S1133350C80167E671E040E550E09E012F5F3F4FF2
S11333600E94300AC80167E571E042E050E09E0126
S11333702D5F3F4F0E94300AC8010E940E0D0F902E
S11333800F900F900F90CF91DF911F910F9108959F
S11333900E94F4168FEA0E94C1160E948F1685E0DF
S11333A062E00E94B6148AE591E00E9480160E94B1
S11333B02717019721F40E948E190E9406190E9472
S11333C00817F5CF9C01E3E2F0E0808180818081E1
S11333D0808121503040C9F70895DC01E5E2F0E036
S11333E09D91992324F480818260808303C080812D
S11333F08D7F808380818460808380818B7F8083C4
S113340096FF04C080818260808303C080818D7FA9
S1133410808380818460808380818B7F808395FF1B
S113342004C080818260808303C080818D7F80831B
S113343080818460808380818B7F808394FF04C03B
S113344080818260808303C080818D7F80838081BE
S11334508460808380818B7F808393FF04C080811C
S11334608260808303C080818D7F808380818460BB
S1133470808380818B7F808392FF04C080818260FF
S1133480808303C080818D7F80838081846080837A
S113349080818B7F808391FF04C0808182608083E0
S11334A003C080818D7F808380818460808380815C
S11334B08B7F808390FF04C080818260808303C0FF
S11334C080818D7F808380818460808380818B7FF5
S11334D080836150704009F083CF0895CF93DF93C8
S11334E0EC01E5E2F0E0808182608083A3E2B0E059
S11334F09C91917080818460808380818B7F8083A4
S1133500990F8C9180FD9F5F80818460808380818E
S11335108B7F8083990F8C9180FD9F5F8081846075
S1133520808380818B7F8083990F8C9180FD9F5F46
S113353080818460808380818B7F8083990F8C91CC
S113354080FD9F5F80818460808380818B7F808306
S1133550990F8C9180FD9F5F80818460808380813E
S11335608B7F8083990F8C9180FD9F5F8081846025
S1133570808380818B7F8083990F8C9180FD9F5FF6
S113358080818460808380818B7F80839883615075
S1133590704011F02196ACCFDF91CF910895EF9256
S11335A0FF920F931F93DF93CF930F92CDB7DEB7A4
S11335B008E813E17E010894E11CF11CC70161E0F5
S11335C070E00E946E1A89818F3F39F084E690E0A2
S11335D00E94E2190150104089F798010115110564
S11335E011F021E030E0822F932F0F90CF91DF91E3
S11335F01F910F91FF90EF900895DF93CF930F9257
S1133600CDB7DEB7E5E2F0E0808188608083CE014B
S1133610019661E070E00E946E1A0F90CF91DF91E5
S11336200895DF93CF930F92CDB7DEB7E5E2F0E0D4
S11336308081877F8083CE01019661E070E00E94E3
S11336406E1A0E94CF1A892B19F021E030E004C0D1
S11336500E94FD1A20E030E0822F932F0F90CF912B
S1133660DF910895AF92BF92CF92DF92EF92FF92D3
S11336700F931F93DF93CF9300D0CDB7DEB76C01C8
S11336805B0108EE13E07E010894E11CF11CC70104
S113369061E070E00E946E1A89818F3F39F484E6FC
S11336A090E00E94E2190150104089F789818E3F11
S11336B019F020E030E00CC0C601B5010E946E1A7A
S11336C0CE01019662E070E00E946E1A21E030E0C3
S11336D0822F932F0F900F90CF91DF911F910F9115
S11336E0FF90EF90DF90CF90BF90AF900895FF923E
S11336F00F931F93DF93CF9300D0CDB7DEB78C0128
S1133700F62E0E94CF1A892B19F420E030E029C04C
S1133710F982CE01019661E070E00E94ED198DEF0F
S1133720F81619F421E030E01CC0C80160E072E032
S11337300E94ED198E010F5F1F4FC80162E070E017
S11337400E946E1AC80161E070E00E946E1A90E057
S113375089818F71853009F091E081E08927282FD4
S113376030E0822F932F0F900F90CF91DF911F9114
S11337700F91FF900895DF92EF92FF920F931F93A2
S1133780DF93CF93CDB7DEB727970FB6F894DEBF9C
S11337900FBECDBFD82E7A018B01882364F487E352
S11337A040E050E060E070E00E94BB1B823008F013
S11337B03EC08FE7D8228CE0D81609F446C00E9498
S11337C0FD1A0E94111B892B11F48FEF30C08D2D2F
S11337D080648A83812F9927AA27BB278B83C801FA
S11337E0AA27BB278C83BB27A12F902F8F2D8D83D6
S11337F0EE82DD2009F452C088E0D81609F445C0F1
S113380081E08F83CE01029666E070E00E94ED199C
S11338101AE07E010894E11CF11CC70161E070E02C
S11338200E946E1A8981882314F41150B1F72796E7
S11338300FB6F894DEBF0FBECDBFCF91DF911F91BD
S11338400F91FF90EF90DF9008958CE48A83812F8D
S11338509927AA27BB278B83C801AA27BB278C8358
S1133860BB27A12F902F8F2D8D83EE8281E08F8334
S1133870CE01029666E070E00E94ED19CE01019639
S113388061E070E00E946E1AC3CF87E88F83CE0197
S1133890029666E070E00E94ED19BACF85E98F8345
S11338A0CE01029666E070E00E94ED19B1CF882344
S11338B011F081E008958091E8010895EF92FF925C
S11338C00F931F93DF93CF9300D000D0CDB7DEB713
S11338D0882311F013E0AFC080E197E20E94E2195F
S11338E0A4E2B0E08C9188608C93E5E2F0E0808102
S11338F0886080838C9184608C9380818B7F8083AB
S11339008C9182608C931AE07E010894E11CF11C76
S1133910C70161E070E00E946E1A1150C9F780E09F
S113392040E050E060E070E00E94BB1B813009F091
S113393077C088E04AEA51E060E070E00E94BB1B77
S1133940813009F03DC0CE01019664E070E00E9430
S11339506E1A8B81813009F063C08C818A3A09F038
S11339605FC008EE13E089EA40E050E060E070E4F4
S11339700E94BB1B882341F088EE93E00E94E21969
S11339800150104081F74CC08AE340E050E060E011
S113399070E00E94BB1B882309F042C0CE0101964F
S11339A064E070E00E946E1A898186FD04C0FF24E1
S11339B06894F2F836C00F2EFCE0FF2EF02D31C0D3
S11339C089EA40E050E060E070E00E94BB1B823076
S11339D028F0FF24F394EE24E39407C0FF246894B2
S11339E0F1F80F2EF9EAEF2EF02D08EE13E08E2DEC
S11339F040E050E060E070E00E94BB1B882341F08F
S1133A0088EE93E00E94E2190150104081F708C04B
S1133A1080E140E052E060E070E00E94BB1B811155
S1133A20FF24F0927A0210E0FF2009F411E01093D1
S1133A30E8010E94FD1A812F0F900F900F900F90B4
S1133A40CF91DF911F910F91FF90EF900895BF9256
S1133A50CF92DF92EF92FF920F931F93CF93DF9356
S1133A60EB0169017A010E94571C80FF02C083E0C8
S1133A703DC080917A0283FD09C00B2EB9E0CC0CC5
S1133A80DD1CEE1CFF1CBA95D1F7B02D02301105D8
S1133A9028F40F2EF1E1BF2EF02D04C00F2EF2E119
S1133AA0BF2EF02D8B2DB701A6010E94BB1B8823CE
S1133AB0B9F4CE0160E072E00E94321B892B31F030
S1133AC00150104019F0C050DE4FF3CF82E1B81618
S1133AD039F48CE040E050E060E070E00E94BB1BF1
S1133AE00E94FD1A80E0012B09F081E0DF91CF9163
S1133AF01F910F91FF90EF90DF90CF90BF900895AA
S1133B00CF92DF92EF92FF920F931F93CF93DF93A5
S1133B10EB0169017A010E94571C80FF02C083E017
S1133B204DC080917A0290E083FD09C00B2EB9E06C
S1133B30CC0CDD1CEE1CFF1CBA95D1F7B02D013066
S1133B40110581F488E1B701A6010E94BB1B8823FB
S1133B5079F5CE016EEF0E94771B892B49F100E0C5
S1133B6010E026C086709070892B31F0A80160E0C7
S1133B7070E087E90E94BB1B89E1B701A6010E949E
S1133B80BB1B8823A9F4CE016CEF0E94771B892B01
S1133B9031F00150104019F0C050DE4FF4CF80E0F6
S1133BA090E06DEF0E94771B892B11F401E010E087
S1133BB00E94FD1A80E0012B09F081E0DF91CF9192
S1133BC01F910F91FF90EF90DF90CF900895EF92A7
S1133BD0FF921F93DF93CF93CDB7DEB760970FB6F5
S1133BE0F894DEBF0FBECDBF162F7A010E94571C7A
S1133BF080FF02C013E098C0113071F0113028F03A
S1133C00133009F483C014E08DC00E94111B892B6A
S1133C1009F487C010E086C089E040E050E060E02D
S1133C2070E00E94BB1B882309F07BC0CE01019683
S1133C3060E170E00E94321B892B09F472C0898113
S1133C408295869586958370813049F5888590E0C4
S1133C50A0E0B0E08F739070A070B070DC01992781
S1133C6088270196A11DB11D398520E06A85260F9C
S1133C70311D40E050E0820F931FA41FB51F072E93
S1133C807AE0880F991FAA1FBB1F7A95D1F7702D70
S1133C90F70180839183A283B38310E043C08985B5
S1133CA08295869586958370288530E0220F331F90
S1133CB0220F331F280F311D2F5F3F4F8F8190E05C
S1133CC083709070982F8827990F990F280F391FA8
S1133CD040E050E08E818F706B85661F6627661FFB
S1133CE0860F8E5F6A856370660F860F90E0099772
S1133CF004C0220F331F441F551F8A95D2F7F701C2
S1133D00208331834283538310E00CC080E890E029
S1133D10A0E0B0E0F70180839183A283B38310E035
S1133D2001C011E00E94FD1A812F60960FB6F8942D
S1133D30DEBF0FBECDBFCF91DF911F91FF90EF90FB
S1133D4008955058BB27AA270ED04DC13ED130F05C
S1133D5043D120F031F49F3F11F41EF433C10EF42B
S1133D60E095E7FB29C1E92F4FD180F3BA17620729
S1133D7073078407950718F071F49EF567C10EF474
S1133D80E0950B2EBA2FA02D0B01B90190010C0167
S1133D90CA01A0011124FF27591B99F0593F50F47F
S1133DA0503E68F11A16F040A22F232F342F4427D7
S1133DB0585FF3CF469537952795A795F0405395CF
S1133DC0C9F77EF41F16BA0B620B730B840BBAF09F
S1133DD09150A1F0FF0FBB1F661F771F881FC2F70A
S1133DE00EC0BA0F621F731F841F48F4879577951E
S1133DF06795B795F7959E3F08F0B3CF9395880FD5
S1133E0008F09927EE0F9795879508950CD0EBC08D
S1133E10E3D040F0DAD030F021F45F3F19F0CCC0A9
S1133E20511115C1CFC0F0D098F39923C9F355238C
S1133E30B1F3951B550BBB27AA2762177307840799
S1133E4038F09F5F5F4F220F331F441FAA1FA9F34F
S1133E5033D00E2E3AF0E0E830D091505040E69541
S1133E60001CCAF729D0FE2F27D0660F771F881FA2
S1133E70BB1F261737074807AB07B0E809F0BB0B91
S1133E80802DBF01FF2793585F4F2AF09E3F5105B5
S1133E9068F092C0DCC05F3FECF3983EDCF386959B
S1133EA077956795B795F7959F5FC9F7880F911D2B
S1133EB09695879597F90895E1E0660F771F881F17
S1133EC0BB1F621773078407BA0720F0621B730BCA
S1133ED0840BBA0BEE1F88F7E095089504D068941C
S1133EE0B111B5C0089598D088F09F5790F0B92FBC
S1133EF09927B751A0F0D1F0660F771F881F991F3B
S1133F001AF0BA95C9F712C0B13081F09FD0B1E070
S1133F1008959CC0672F782F8827B85F39F0B93F80
S1133F20CCF3869577956795B395D9F73EF490953C
S1133F308095709561957F4F8F4F9F4F0895E894BA
S1133F4009C097FB3EF490958095709561957F4FDD
S1133F508F4F9F4F9923A9F0F92F96E9BB2793958B
S1133F60F695879577956795B795F111F8CFFAF49B
S1133F70BB0F11F460FF1BC06F5F7F4F8F4F9F4FCC
S1133F8016C0882311F096E911C0772321F09EE82A
S1133F90872F762F05C0662371F096E8862F70E090
S1133FA060E02AF09A95660F771F881FDAF7880F6A
S1133FB09695879597F9089597F99F6780E870E03B
S1133FC060E008959FEF80EC089500240A9416168B
S1133FD0170618060906089500240A9412161306F3
S1133FE0140605060895092E0394000C11F4882381
S1133FF052F0BB0F40F4BF2B11F460FF04C06F5F9D
S11340007F4F8F4F9F4F089557FD9058440F551F72
S113401059F05F3F71F04795880F97FB991F61F046
S11340209F3F79F087950895121613061406551FBD
S1134030F2CF4695F1DF08C0161617061806991F29
S1134040F1CF86957105610508940895E894BB271E
S113405066277727CB0197F9089566D008F48FEF88
S113406008950BD0C0CFB1DF28F0B6DF18F0952348
S113407009F0A2CFA7CF1124EACFC6DFA0F3959F02
S1134080D1F3950F50E0551F629FF001729FBB273B
S1134090F00DB11D639FAA27F00DB11DAA1F649FE7
S11340A06627B00DA11D661F829F2227B00DA11D9A
S11340B0621F739FB00DA11D621F839FA00D611D20
S11340C0221F749F3327A00D611D231F849F600D41
S11340D0211D822F762F6A2F11249F5750408AF07A
S11340E0E1F088234AF0EE0FFF1FBB1F661F771F06
S11340F0881F91505040A9F79E3F510570F05CCF46
S1134100A6CF5F3FECF3983EDCF3869577956795F1
S1134110B795F795E7959F5FC1F7FE2B880F911D23
S11341209695879597F90895990F0008550FAA0B4E
S1134130E0E8FEEF16161706E807F907C0F01216B6
S11341401306E407F50798F0621B730B840B950BB9
S113415039F40A2661F0232B242B252B21F408950E
S11341600A2609F4A140A6958FEF811D811D0895AB
S1134170629FD001739FF001829FE00DF11D649F47
S1134180E00DF11D929FF00D839FF00D749FF00DD3
S1134190659FF00D9927729FB00DE11DF91F639F74
S11341A0B00DE11DF91FBD01CF0111240895A1E255
S11341B01A2EAA1BBB1BFD010DC0AA1FBB1FEE1F9D
S11341C0FF1FA217B307E407F50720F0A21BB30BE8
S11341D0E40BF50B661F771F881F991F1A9469F764
S11341E060957095809590959B01AC01BD01CF01C0
S11341F00895662777270C943A234AE652E00E94F2
S113420012210895FB01DC018D91019080190110A8
S1134210D9F3990B0895FB01DC0101900D92002064
S1134220E1F70895FA01A191B081009719F410976C
S1134230E1F0CD01DC01CD010D90002011F4C001AD
S113424013C0FB012191222319F02015D9F7F3CFD4
S1134250FB012191201519F41E92119606C0222308
S1134260C1F70D900020A1F7D001FA01A193B0830A
S11342700895AEE0B0E0EFE3F1E20C946F250D8910
S11342801E8986E08C831A8309838FEF9FE79E83C0
S11342908D839E01275E3F4FCE0101966F89788DF5
S11342A0A9010E945D212F813885020F131FF80197
S11342B010822E96E4E00C948B25ABE0B0E0E3E6AC
S11342C0F1E20C9461253C012B015A01FC01178297
S11342D01682838181FD03C06FEF7FEFC6C19AE030
S11342E0892E1E010894211C311CF3012381F20143
S11342F023FD859123FF81912F01882309F4B2C105
S1134300853239F423FD859123FF81912F01853274
S113431029F490E0B3010E94D024E7CF982FFF2422
S1134320EE249924FFE1FF15D0F09B3269F09C3212
S113433028F4903259F0933291F40EC09D3249F032
S1134340903369F441E024C052E0F52A84E0F82A6D
S113435028C098E0F92A25C0E0E1FE2A22C0F7FC33
S113436029C0892F80538A3070F4F6FE05C0989CCA
S1134370902C1124980E15C0E89CE02C1124E80E12
S1134380F0E2FF2A0EC09E3229F4F6FC6BC140E431
S1134390F42A07C09C3619F450E8F52A02C098366E
S11343A049F4F20123FD959123FF91912F01992363
S11343B009F0B8CF892F8554833018F080528330A8
S11343C038F444E050E0A40EB51E5FE359830FC0F7
S11343D0933631F0933779F0933509F056C020C005
S11343E0F5018081898342E050E0A40EB51E61018D
S11343F001E010E012C0F501C080D180F6FC03C0DA
S11344006FEF7FEF02C0692D70E042E050E0A40E30
S1134410B51EC6010E94C5248C015FE7F52214C0B5
S1134420F501C080D180F6FC03C06FEF7FEF02C0BE
S1134430692D70E042E050E0A40EB51EC6010E9452
S1134440BA248C0150E8F52AF3FE07C01AC080E2B2
S113445090E0B3010E94D024EA948E2D90E00817D6
S11344601907A8F30EC0F601F7FC8591F7FE8191B8
S11344706F0190E0B3010E94D024E110EA9401504E
S113448010400115110579F7EAC0943611F09936F8
S113449069F5F7FE08C0F50120813181428153811D
S11344A084E090E00AC0F501808191819C01442759
S11344B037FD4095542F82E090E0A80EB91E9FE688
S11344C0F92257FF09C050954095309521953F4FEB
S11344D04F4F5F4FE0E8FE2ACA01B901A1012AE06B
S11344E030E00E94FC24D82ED21840C0953729F41D
S11344F01F2D1F7E2AE030E01DC01F2D197F9F361F
S113450061F0903720F4983509F0ACC00FC09037B3
S113451039F0983709F0A6C004C028E030E00AC09A
S1134520106114FD146020E130E004C014FD166035
S113453020E132E017FF08C0F501608171818281BA
S1134540938144E050E008C0F50180819181BC0171
S113455080E090E042E050E0A40EB51EA1010E946C
S1134560FC24D82ED2188FE7F82EF122F6FE0BC0C9
S11345705EEFF522D91438F4F4FE07C0F2FC05C04E
S11345808FEEF82202C01D2D01C0192DF4FE0DC0BE
S1134590FE01ED0DF11D8081803319F499EEF922AD
S11345A008C01F5FF2FE05C003C08F2D867809F096
S11345B01F5F0F2DF3FC14C0F0FE0FC01E1510F08A
S11345C09D2C0BC09D2C9E0C911A1E2D06C080E2C2
S11345D090E0B3010E94D0241F5F1E15C0F304C0F5
S11345E01E1510F4E11A01C0EE2404FF0FC080E38D
S11345F090E0B3010E94D02402FF1DC001FD03C05E
S113460088E790E00EC088E590E00BC0802F8678A4
S113461091F001FF02C08BE201C080E2F7FC8DE261
S113462090E0B3010E94D02406C080E390E0B3017F
S11346300E94D0249A94D914C0F3DA94F101ED0DB8
S1134640F11D808190E0B3010E94D024DD20A9F700
S113465006C080E290E0B3010E94D024EA94EE20E8
S1134660C1F743CEF30166817781CB012B96E2E15A
S11346700C947D25A0E0B0E0E0E4F3E20C9467251F
S1134680EC015B016115710519F0FB0191838083D5
S1134690F9908F2D90E00E949A24892BC9F7FDE2AE
S11346A0FF1621F4F990EE24E39405C02BE2F216F0
S11346B009F4F990EE248E0101501040C80167E01E
S11346C073E043E050E00E94A224892B01F58E019F
S11346D00E5F1F4FC8016AE073E045E050E00E949E
S11346E0A224892B19F48E01095F1F4FA114B10470
S11346F019F0F50111830083E0FC04C070E090E040
S113470080E814C070E090E080E86FEF08C1C80151
S11347106FE073E043E050E00E94A224892B69F427
S1134720A114B10429F470E090E080EC6FE7F7C0C5
S11347302296F501D183C083F6CF8824992440E0E2
S113474050E060E070E0EF2DE053EA30A0F5F2E0D5
S1134750EF2A8E2D90E09C0128703070E2FE06C096
S1134760232B79F50894811C911C2BC0232B19F061
S1134770089481089108DB01CA0112E0880F991F8F
S1134780AA1FBB1F1A95D1F7480F591F6A1F7B1F19
S1134790440F551F661F771F4E0F511D611D711D5C
S11347A0483929E9520729E9620729E1720748F0E3
S11347B084E0E82A06C0EE3F31F4E3FC39C098E017
S11347C0E92AF990C0CFE53311F0E53189F5299153
S11347D02D3219F4E0E1EE2A05C02B3219F081E004
S11347E090E003C0299182E090E0E22FE053EA30A8
S11347F018F0C81BD90B1CC020E030E0FCE02038C6
S11348003F075CF4C901880F991F880F991F280F6F
S1134810391F220F331F2E0F311DE991E053EA3067
S113482068F3E4FE03C0309521953F4F820E931E3A
S1134830CE2CDD24E1FE07C0A114B10421F02197A0
S1134840F501D183C083CB01BA010E949F1F7B0174
S11348508C01F3E0CF22DD2423E0C216D10421F43D
S113486017FB109517F9109557016801C801B70196
S113487020E030E040E050E00E945A25882309F40B
S11348804AC097FE0DC026E2E22E23E0F22E909459
S1134890819491089394C0E2D0E000E010E012C04B
S11348A09EE3E92E93E0F92EF6CFF7012591359199
S11348B045915491C601B5010E9431205B016C0100
S11348C08C1A9D0A8C169D0684F7D595C7950F5FA3
S11348D01F4F0630110529F08CEF9FEFE80EF91EEB
S11348E0F1CFC501D6017C018D018C2D880F8D2D52
S11348F0881F8F3F51F0C601B50120E030E040E051
S113490050E00E945A25882331F482E290E090938B
S1134910D2068093D1067E2D9F2D802F612F272FC5
S1134920392F482F562FB901CA01CDB7DEB7ECE0B5
S11349300C9483259111C2C0803219F0895085509E
S1134940D0F70895FB01DC014150504088F08D916F
S113495081341CF08B350CF4805E659161341CF05D
S11349606B350CF4605E861B611171F3990B08952D
S1134970881BFCCFFC010590615070400110D8F7F2
S1134980809590958E0F9F1F0895FC016150704093
S113499001900110D8F7809590958E0F9F1F089570
S11349A00F931F93CF93DF938C01EB018B8181FFD6
S11349B01BC082FF0DC02E813F818C819D812817F1
S11349C0390764F4E881F9810193F983E88306C027
S11349D0E885F985802F0995892B31F48E819F8193
S11349E001969F838E8302C00FEF1FEFC801DF91F2
S11349F0CF911F910F910895FA01AA27283051F100
S1134A00203181F1E8946F936E7F6E5F7F4F8F4FFB
S1134A109F4FAF4FB1E03ED0B4E03CD0670F781F5A
S1134A20891F9A1FA11D680F791F8A1F911DA11D3F
S1134A306A0F711D811D911DA11D20D009F4689478
S1134A403F912AE0269F11243019305D3193DEF620
S1134A50CF010895462F4770405D4193B3E00FD0D6
S1134A60C9F7F6CF462F4F70405D4A3318F0495DC1
S1134A7031FD4052419302D0A9F7EACFB4E0A695A4
S1134A809795879577956795BA95C9F700976105C6
S1134A90710508959B01AC010A2E0694579547951C
S1134AA037952795BA95C9F7620F731F841F951F11
S1134AB0A01D089539DB08F481E00895992788271B
S1134AC008952F923F924F925F926F927F928F92AE
S1134AD09F92AF92BF92CF92DF92EF92FF920F9389
S1134AE01F93CF93DF93CDB7DEB7CA1BDB0B0FB693
S1134AF0F894DEBF0FBECDBF09942A883988488850
S1134B005F846E847D848C849B84AA84B984C884E5
S1134B10DF80EE80FD800C811B81AA81B981CE0FDC
S1134B20D11D0FB6F894DEBF0FBECDBFED010895C1
S1074B30F894FFCF23
S1134B3452414D0046415400464154333200222A26
S1134B442B2C3A3B3C3D3E3F5B5D7C7F00004C613B
S1134B54743A2025642E256C64202573004C6F6EF2
S1134B643A2025642E256C642025730053706565F2
S1134B74643A202564002C00244750524D430047D6
S1134B8450532E747874000D0A005374617274695E
S1134B946E672E2E2E0001000000000000000000AD
S1134BA400000000000000000000000000000000FD
S1134BB400000000000000000000000000000000ED
S1134BC400000000000000000000000000000000DD
S1134BD400000000000000000000000000000000CD
S1134BE400000000000000000000000000000000BD
S1134BF400000000000000000000000000000000AD
S1134C04000000000000000000000000000000009C
S1134C14000000000000000001809A45418E418F8D
S1134C24804545454949498E8F9092924F994F55F5
S1134C345559999A9B9C9D9E9F41494F55A5A5A65C
S1134C44A7A8A9AAABACADAEAFB0B1B2B3B4B5B674
S1134C54B7B8B9BABBBCBDBEBFC0C1C2C3C4C5C664
S1134C64C7C8C9CACBCCCDCECFD0D1D2D3D4D5D654
S1134C74D7D8D9DADBDCDDDEDFE0E1E2E3E4E5E644
S1134C84E7E8E9EAEBECEDEEEFF0F1F2F3F4F5F634
S10D4C94F7F8F9FAFBFCFDFEFF003F
S9030000FC
