S00B00004750532E737265632F
S11300000C94A1010C94BE010C94BE010C94BE018D
S11300100C94BE010C94BE010C94BE010C94BE0160
S11300200C94BE010C94BE010C94BE010C94BE0150
S11300300C94BE010C94BE010C94BE010C94BE0140
S11300400C94BE010C94BE010C94BE010C94BE0130
S11300500C94BE010C94BE010C94BE010C94BE0120
S11300600C94BE010C94BE010000000000000000CE
S1130070002F000000000700070000147F147F1405
S113008000242A7F2A12006264081323003649558B
S1130090225000000503000000001C224100000063
S11300A041221C000014083E08140008083E0808F9
S11300B0000000A060000008080808080000606054
S11300C00000002010080402003E5149453E000093
S11300D0427F4000004261514946002141454B3175
S11300E0001814127F10002745454539003C4A4941
S11300F049300001710905030036494949360006B3
S11301004949291E0000363600000000563600001A
S11301100008142241000014141414140000412295
S1130120140800020151090600324959513E007C6D
S11301301211127C007F49494936003E4141412257
S1130140007F4141221C007F49494941007F090940
S11301500901003E4149497A007F0808087F0000F0
S1130160417F4100002040413F01007F08142241AB
S1130170007F40404040007F020C027F007F040863
S1130180107F003E4141413E007F09090906003EBF
S11301904151215E007F09192946004649494931E8
S11301A00001017F0101003F4040403F001F20400B
S11301B0201F003F4038403F0063140814630007C9
S11301C00870080700615149454300007F41410020
S11301D000552A552A55000041417F0000040201C0
S11301E0020400404040404000000102040000209E
S11301F054545478007F48444438003844444420DC
S113020000384444487F00385454541800087E0988
S113021001020018A4A4A47C007F08040478000050
S1130220447D4000004080847D00007F102844000D
S11302300000417F4000007C04180478007C08041E
S1130240047800384444443800FC2424241800185A
S1130250242418FC007C0804040800485454542046
S113026000043F444020003C4040207C001C2040CF
S1130270201C003C4030403C004428102844001C12
S1130280A0A0A07C004464544C44000008774100C2
S11302900000006300000000417708000008040823
S11302A00804003A4040207A003D4040403D00218F
S11302B054545479007D1211127D00394444443958
S11302C0003D4242423D000205020000007E014919
S11302D05573007C1010081CBC5F9C60A461846290
S11302E0B6639664B0659F66B567FFFFAE2000B045
S11302F0C8001040813FA1A6A83FA4D300D5F0D9DF
S113030022DA12DB208D14494E46494E4954594E87
S1130310414ECDCCCC3D0AD7233C17B7D13877CC4E
S11303202B329595E6241FB14F0A000020410000AE
S1130330C84200401C4620BCBE4CCA1B0E5AAEC567
S11303409D7411241FBECFEFD8E0DEBFCDBF12E0F5
S1130350A0E0B1E0ECE0F8E402C005900D92AA360A
S1130360B107D9F716E0AAE6B2E001C01D92AF3C8E
S1130370B107E1F70E94F0180C9404240C940000D7
S1130380FC01238130E040E050E0542F432F322F12
S11303902227828190E0A0E0B0E0282B392B4A2B61
S11303A05B2B542F432F322F2227818190E0A0E032
S11303B0B0E0282B392B4A2B5B2B542F432F322FA1
S11303C02227808190E0A0E0B0E0282B392B4A2B33
S11303D05B2BB901CA010895CF93DF939C01FC0103
S11303E04193BB27A72F962F852FE9018983CB0142
S11303F0AA27BB278183472F552766277727428360
S1130400DF91CF910895EF92FF920F931F93FC0118
S1130410DB015B969C915B9780E05A962C915A97EE
S113042030E0822B932B7C0100E010E0808183304C
S113043091F455969C91559780E054962C9130E018
S1130440822B932BA0E0B0E0DC0199278827E82ACF
S1130450F92A0A2B1B2BB701C8011F910F91FF909A
S1130460EF900895CF93DF93AC01DC01ED91FC9103
S11304703097C1F1DF018C91813218F420E030E033
S113048033C011968A33B9F72081822F80538A3082
S113049060F4CF010296A817B90739F4822F90E0CF
S11304A0C09718161906CCF41DC0C0E0D1E099918C
S11304B02191892F81568A3108F49052822F8156D6
S11304C08A3108F42052992319F0921781F30AC053
S11304D0EA17FB0739F480E090E0FA01B183A083C6
S11304E09C0102C02FEF3FEFC901DF91CF91089526
S11304F00F931F93CF93DF93EC018B01009799F037
S1130500E881F981309779F08081882361F02A812C
S11305103B81858196812817390729F481810E94BE
S1130520E01A80FF0CC080E090E029E0F80191839C
S11305308083822FDF91CF911F910F91089588813D
S1130540998120E0F3CF8F929F92AF92BF92CF9286
S1130550DF92EF92FF920F931F93CF93DF93EC01FF
S11305608B818823C1F13FE2C32ED12CCC0EDD1E3A
S11305702BA53CA54DA55EA58981B60101E010E03F
S11305800E94F41B882311F081E026C01B82EBA497
S1130590FCA40DA51EA52F89388D498D5A8D8F8DEC
S11305A098A1A9A1BAA147015801881A990AAA0ACF
S11305B0BB0A82169306A406B50668F48A818230C3
S11305C051F42E0D3F1D401F511F8981B60101E0DA
S11305D010E00E94F41B80E0DF91CF911F910F91F6
S11305E0FF90EF90DF90CF90BF90AF909F908F904F
S11305F00895AF92BF92CF92DF92EF92FF920F9342
S11306001F93DF93CF930F92CDB7DEB75C016A01DE
S11306107B01FC0183A594A5A5A5B6A54817590798
S11306206A077B0711F490E01FC0C5010E94A30272
S1130630982F8823C9F4B501615D7F4FF50181814D
S1130640A701960101E010E099830E94A71B9981FC
S1130650882329F0CC24CA94DC2C760191E0F5019E
S1130660C3A6D4A6E5A6F6A6892F0F90CF91DF9155
S11306701F910F91FF90EF90DF90CF90BF90AF90BC
S11306800895BF92CF92DF92EF92FF920F931F9340
S1130690CF93DF93FC017A018B01C081D181423079
S11306A051056105710508F4B3C08B899C89AD8936
S11306B0BE89481759076A077B0708F0A9C08881D3
S11306C0823009F45AC0833009F47CC0813009F0C7
S11306D09FC06A01D694C794C40ED51EA601452FA7
S11306E05527469560E070E08F8D98A1A9A1BAA125
S11306F0480F591F6A1F7B1FCE010E94F9028823ED
S113070009F08BC0F601F170EC0FFD1FB7A408943B
S1130710C11CD11CA601452F5527469560E070E009
S11307208F8D98A1A9A1BAA1480F591F6A1F7B1FD9
S1130730CE010E94F902882309F06FC06B2D70E08E
S11307408FEF91E0C822D922CC0DDD1D9FA580E05A
S1130750682B792BC70181709070892B39F0B4E034
S113076076956795BA95E1F79B0129C09B0140E016
S113077050E03F704070507054C0452F562F672F83
S113078077278F8D98A1A9A1BAA1480F591F6A1F75
S11307907B1FCE010E94F902882309F03EC0EE0CB3
S11307A0FF1C001F111FC7019170FE01E80FF91F04
S11307B030A920E087A590E0822B932B9C0140E098
S11307C050E02FC0E7E07695679557954795EA95F1
S11307D0D1F78F8D98A1A9A1BAA1480F591F6A1FFB
S11307E07B1FCE010E94F9028823B9F442E0EE0C8B
S11307F0FF1C001F111F4A95D1F7C70191708F96F6
S11308008C0F9D1F0E94C0019B01AC015F7009C049
S113081021E030E040E050E004C02FEF3FEF4FEF25
S11308205FEFB901CA01DF91CF911F910F91FF9042
S1130830EF90DF90CF90BF9008952F923F924F9208
S11308405F926F927F928F929F92AF92BF92CF925C
S1130850DF92EF92FF920F931F93CF93DF932C01BC
S11308603A014B01FC01C081D1814030F0E05F07C7
S1130870F0E26F07F0E07F0708F0D8C0DB01CA019F
S11308808F719070A070B0700097A105B10509F048
S1130890CDC0F20146875787608B718BE680F78065
S11308A000851185E114F1040105110551F58881D4
S11308B0833040F08BA19CA1ADA1BEA10097A105FE
S11308C0B105E9F4A4019301F5E0569547953795F0
S11308D02795FA95D1F78F819885A0E0B0E0281785
S11308E039074A075B0708F0A1C08BA19CA1ADA101
S11308F0BEA1F201868B978BA08FB18F6FC07C0154
S11309008D0189859A855C01CC24DD24E9E0AA0C5B
S1130910BB1CCC1CDD1CEA95D1F7120126C0C10119
S1130920B801A7010E9441037B018C016F3FFFEFD7
S11309307F07FFEF8F07FFEF9F0711F481E077C078
S113094082E0E816F1040105110508F46FC08B89F3
S11309509C89AD89BE89E816F9060A071B0708F0C9
S113096065C06A187B088C089D086A147B048C0493
S11309709D04A8F67EEFA72E7FEFB72E7FEFC72E3C
S11309807FEFD72EAE0CBF1CC01ED11E8B899C8955
S1130990AD89BE890297A109B109A816B906CA068C
S11309A0DB0628F020E030E040E050E012C029856A
S11309B03A8540E050E0C601B5010E94241F9B0126
S11309C0AC018FA198A5A9A5BAA5280F391F4A1F64
S11309D05B1FF201268B378B408F518FF201E28A25
S11309E0F38A048B158B26893789408D518D211507
S11309F0310541055105D1F0D401C30169E0B69533
S1130A00A795979587956A95D1F7820F931FA41F91
S1130A10B51F868B978BA08FB18FC30191708F9672
S1130A20C80FD91FD38FC28F80E001C082E0DF914D
S1130A30CF911F910F91FF90EF90DF90CF90BF90D7
S1130A40AF909F908F907F906F905F904F903F906A
S1130A502F9008957F928F929F92AF92BF92CF92E0
S1130A60DF92EF92FF920F931F93CF93DF93EC01EA
S1130A706A017B0148015901423051056105710544
S1130A8008F4DFC08B899C89AD89BE894817590752
S1130A906A077B0708F0D5C08881823009F472C0E8
S1130AA0833009F491C0813009F0CBC08A011695D6
S1130AB00795040F151FA801452F5527469560E09B
S1130AC070E08F8D98A1A9A1BAA1480F591F6A1F80
S1130AD07B1FCE010E94F902782E882309F0B3C04F
S1130AE0D801B1700F5F1F4F91E0C922DD24C114FA
S1130AF0D10451F0FE01EA0FFB1F87A58F70982DDA
S1130B009295907F982B01C0982DAC0FBD1F9F9696
S1130B109C9381E08B83A801452F5527469560E07F
S1130B2070E08F8D98A1A9A1BAA1480F591F6A1F1F
S1130B307B1FCE010E94F902782E882309F083C01E
S1130B403FEFE32E31E0F32EE022F122CD2849F0ED
S1130B5024E0B694A794979487942A95D1F7E82D26
S1130B600BC0FE01EE0DFF1DE7A5E07FBB27AB2DFB
S1130B709A2D892D8F70E82BEC0EFD1ED7019F96C0
S1130B80EC935CC0452F562F672F77278F8D98A144
S1130B90A9A1BAA1480F591F6A1F7B1FCE010E9449
S1130BA0F902782E882309F04EC0CC0CDD1CEE1C13
S1130BB0FF1CF601F170DE01AE0FBF1F9F968C92F1
S1130BC09F97FD0190AA3AC017E0769567955795CF
S1130BD047951A95D1F78F8D98A1A9A1BAA1480F6D
S1130BE0591F6A1F7B1FCE010E94F902782E8823A9
S1130BF051F58FEF9FEFAFEFBFE088229922AA2231
S1130C00BB22B2E0CC0CDD1CEE1CFF1CBA95D1F764
S1130C1086011170015D1F4F0C0F1D1FC8010E943A
S1130C20C001607070708070907F862A972AA82A0D
S1130C30B92AC801B501A4010E94EC0181E08B83AB
S1130C4002C0A2E07A2E872DDF91CF911F910F91E0
S1130C50FF90EF90DF90CF90BF90AF909F908F90D8
S1130C607F9008954F925F926F927F928F929F929E
S1130C70AF92BF92CF92DF92EF92FF920F931F93A6
S1130C80CF93DF938C012A013B01FC01C081D18108
S1130C90411551056105710599F48B849C84AD84DB
S1130CA0BE8481149104A104B10451F18B899C89FF
S1130CB0AD89BE8988169906AA06BB0608F525C023
S1130CC00E9441039B01AC016230710581059105CD
S1130CD008F4EEC06F3FFFEF7F07FFEF8F07FFEFD2
S1130CE09F0709F4F3C08B899C89AD89BE892817B5
S1130CF039074A075B0708F4E9C05301420105C0FC
S1130D00B1E08B2E912CA12CB12C8F859889A989C7
S1130D10BA890097A105B10509F4D4C084149504D7
S1130D20A604B70409F04AC0750164010894C11C03
S1130D30D11CE11CF11C8B899C89AD89BE89C81624
S1130D40D906EA06FB0628F0A2E0CA2ED12CE12C33
S1130D50F12CC801B701A6010E9441039B01AC011B
S1130D60613071058105910509F4B0C02F3F8FEF03
S1130D7038078FEF48078FEF580709F4A7C02115EC
S1130D80310541055105A9F02B853C854D855E85CE
S1130D90223031054105510588F08B899C89AD8944
S1130DA0BE89281739074A075B0740F449015A01ED
S1130DB005C0C114D104E104F104E9F5750164012D
S1130DC00894C11CD11CE11CF11C8B899C89AD8940
S1130DD0BE89C816D906EA06FB0660F0E2E08E1664
S1130DE09104A104B10408F46DC0F2E0CF2ED12C1B
S1130DF0E12CF12CC801B701A6010E9441039B011B
S1130E00AC016115710581059105A9F06130710589
S1130E108105910509F45AC06F3FFFEF7F07FFEF8B
S1130E208F07FFEF9F0709F451C0C814D904EA04DF
S1130E30FB0431F647C0CE01B701A6010FEF1FEF47
S1130E402FEF3FEF0E942A05882381F541145104B6
S1130E506104710449F0CE01B301A2019701860136
S1130E600E942A05882311F5CB86DC86ED86FE8652
S1130E702F85388949895A898B899C89AD89BE898E
S1130E800297A109B10982179307A407B50740F097
S1130E9021503040404050402F87388B498B5A8B2B
S1130EA08C8181608C83A701960110C0813029F068
S1130EB021E030E040E050E009C02FEF3FEF4FEF7A
S1130EC05FEF04C020E030E040E050E0B901CA0127
S1130ED0DF91CF911F910F91FF90EF90DF90CF9012
S1130EE0BF90AF909F908F907F906F905F904F9046
S1130EF008952F923F924F925F926F927F928F92BA
S1130F009F92AF92BF92CF92DF92EF92FF920F9394
S1130F101F93DF93CF9300D000D000D0CDB7DEB7BE
S1130F202C015B01DC016D907C9011971E96ED9075
S1130F30FD900D911C91519756962D913D914D9197
S1130F405C915997211531054105510509F476C184
S1130F50D801C7018096A11DB11D89839A83AB83F3
S1130F60BC838030E0E09E07E0E2AE07E0E0BE072D
S1130F7008F064C19170A070B0700097A105B1052C
S1130F8009F049C12F5F3F4F4F4F5F4FD201569633
S1130F902D933D934D935C9359975296ED90FD900C
S1130FA00D911C915597E114F10401051105B1F45B
S1130FB029813A814B815C8175E056954795379537
S1130FC027957A95D1F7F30187819085A0E0B0E069
S1130FD0281739074A075B07F0F51DC1F30181851E
S1130FE092850197A0E0B0E029813A814B815C8130
S1130FF069E056954795379527956A95D1F78223E9
S11310009323A423B5230097A105B10509F003C1D7
S1131010C201B801A7010E9441036B017C01623047
S113102071058105910508F40BC16F3F2FEF72071D
S11310302FEF82072FEF920709F404C1F30183898C
S11310409489A589B689C816D906EA06FB0608F468
S1131050A2C0AB2841F4D20156961D921D921D9256
S11310601C925997EBC0F2014289538964897589AE
S1131070C2010E9432066B017C0161157105810574
S1131080910511F487E0DFC0613071058105910598
S113109009F4D6C06F3F2FEF72072FEF82072FEFAF
S11310A0920709F4CFC0C3010E94A302882309F068
S11310B0C9C00EEF802E0FEF902E0FEFA02E0FEF72
S11310C0B02E8C0C9D1CAE1CBF1CF301838994892B
S11310D0A589B6890297A109B10988169906AA06B5
S11310E0BB0620F088249924540116C0D301199614
S11310F02D913C911A9740E050E0C501B4010E9443
S1131100241F4B015C01F30187A190A5A1A5B2A501
S1131110880E991EAA1EBB1ED3019B968D929D928A
S1131120AD92BC929E971FE2212E312C260C371CC7
S1131130F10180E092E011920197E9F71E821D828D
S113114005C0ED81FE813196FE83ED83D3011996AE
S11311508D919C911A97ED81FE81E817F90780F42F
S11311609F0140E050E0280D391D4A1D5B1D11967A
S11311708C91B10101E010E00E94F41B882309F373
S1131180D30119968D919C911A97ED81FE81E817F0
S1131190F90709F057C0D2015296CD92DD92ED9233
S11311A0FC9255978EEF9FEFAFEFBFEF8C0D9D1D17
S11311B0AE1DBF1D7C018D01F30183899489A5892E
S11311C0B6890297A109B109E816F9060A071B07AF
S11311D028F020E030E040E050E016C0D30119963A
S11311E02D913C911A9740E050E0C801B7010E944C
S11311F0241F9B01AC01F30187A190A5A1A5B2A571
S1131200280F391F4A1F5B1FD20156962D933D9319
S11312104D935C93599789819A81AB81BC81F2018A
S113122086879787A08BB18B89819A8191708F96DD
S1131230680E791E738E628E80E005C084E003C060
S113124082E001C081E026960FB6F894DEBF0FBE9F
S1131250CDBFCF91DF911F910F91FF90EF90DF9061
S1131260CF90BF90AF909F908F907F906F905F9042
S11312704F903F902F900895CF93DF93EC011B8202
S11312808FEF9FEFAFEFBFEF8BA79CA7ADA7BEA7D4
S1131290CE010E94F902882311F084E041C0C25DAE
S11312A0DD4F988180E02A91CD52D24030E0822BEC
S11312B0932B85559A4A11F083E032C08FA5893E5D
S11312C021F08B3E11F0883E51F5DE01AB59BF4F42
S11312D0E4E0F1E08D91282F30E08191281B310961
S11312E081E0E730F80719F0232BA1F302C0232B88
S11312F0A1F0DE01AF57BF4FE8E0F1E08D91282F58
S113130030E08191281B310981E0ED30F80719F0B4
S1131310232BA1F304C0232B11F480E001C082E04D
S1131320DF91CF9108952F923F924F925F926F92E7
S11313307F928F929F92AF92BF92CF92DF92EF9261
S1131340FF920F931F93DF93CF93CDB7DEB72B9705
S11313500FB6F894DEBF0FBECDBF7C01162F072F4A
S11313601A0139872887D9011D921C928A87FB8626
S1131370BE016F5F7F4F0E9478028D83882309F03E
S1131380ABC1F701F785FD83FF2309F0A5C1D701A0
S11313901E968C9181FD03C0B7E0BD839DC1F7010A
S11313A02089318942895389C101A0E0B0E0820FCC
S11313B0931FA41FB51F82179307A407B50718F43A
S11313C0190120943094812F902F9C013C832B830E
S11313D0B7016E5D7F4F7F836E8373C1D7015096D3
S11313E02D913D914D915C915397DA01C901917012
S11313F0A070B0700097A105B10509F00EC1DA0123
S1131400C90119E0B695A795979587951A95D1F7CF
S1131410E981FA8161847284089461087108682200
S113142079226114710409F052C021153105410576
S1131430510589F4F70126813781408551852115AD
S1131440310541055105D1F48A859B8540E050E082
S113145060E070E009C0D70154964D915D916D91A3
S11314607C9157978A859B850E9432069B01AC012B
S1131470611571058105910509F427C121303105F4
S11314804105510511F482E0BEC02F3FFFEF3F0735
S1131490FFEF4F07FFEF5F0731F481E0D7011F969D
S11314A08C938D8319C1F701248B358B468B578B15
S11314B086819781A085B1850097A105B10539F48E
S11314C0D70116962D933D934D935C931997F7018D
S11314D0868587FF1AC0E981FA81D70158962D9134
S11314E03D914D915C915B9781816E817F8101E09B
S11314F010E00E94F41B882309F084C0D7011E96D3
S11315008C911E978F771E968C9349805A80F70191
S113151024893589468957892250304040405040BB
S1131520F20183899489A589B6890297A109B10931
S1131530281739074A075B07B8F401851285B801F3
S113154080E090E00E94241F9B01AC01F20187A17E
S113155090A5A1A5B2A5280F391F4A1F5B1F21150D
S113156031054105510511F482E098CF5301CC2493
S1131570DD24A20EB31EC41ED51E4101892C99245C
S1131580869481149104D1F0C401860D971D081727
S1131590190718F4480186189708F20181816B81B4
S11315A07C81A601950184010E94F41B882309F023
S11315B074CF8401102F0027110F53C0F701808DC1
S11315C0918DA28DB38D8A159B05AC05BD05F1F0F7
S11315D0208931894289538982859385A485B5857B
S11315E0281739074A075B0788F4D20111968C91B2
S11315F06E817F81A601950101E010E00E94A71B86
S1131600882321F081E0F70187874BCFD7015896D3
S1131610AD92BD92CD92DC925B97F701208931891E
S113162042895389C901917060E072E0681B790BAB
S113163081016215730508F48B01F901F170B2960A
S1131640EE0DFF1DAB81BC8198018D9181932150DA
S11316503040D9F7D7011E968C911E9780681E964C
S11316608C93201A310AE885F98580819181800F55
S1131670911F918380836B817C81600F711F7C83B8
S11316806B83C801A0E0B0E0F70120893189428969
S11316905389820F931FA41FB51F808B918BA28B3C
S11316A0B38B228533854485558582179307A40718
S11316B0B50710F4DA01C901F70182879387A4877B
S11316C0B5872114310409F089CED7011E968C9177
S11316D01E9780641E968C938D812B960FB6F8947A
S11316E0DEBF0FBECDBFCF91DF911F910F91FF9051
S11316F0EF90DF90CF90BF90AF909F908F907F90AE
S11317006F905F904F903F902F900895BF92CF922B
S1131710DF92EF92FF920F931F93DF93CF9300D04A
S1131720CDB7DEB76C01BE016F5F7F4F0E947802B8
S1131730B82E882309F0E7C0D6011E968C911E9717
S113174086FFE1C087FF19C0E981FA81B6016E5DA9
S11317507F4F58962D913D914D915C915B9781817E
S113176001E010E00E94F41B882319F0BB24B39419
S1131770CAC0F60186858F778687D6015C964D911F
S11317805D916D917C915F9789819A810E94F902A4
S1131790B82E882309F0B7C0F60100A111A1D80121
S11317A01B968C911B9780621B968C930190F08101
S11317B0E02DD60116962D913D914D915C9119978E
S11317C0D8015A962C935A975B963C938081833028
S11317D031F4CA01AA27BB27F801848B958BD60163
S11317E01A964D915D916D917C911D97C8014C960F
S11317F00E94EC01C801469640E050E061E27CE4BE
S11318000E94EC01F801128A138AE980FA8081E0CF
S1131810D70113968C93C7010E94A302B82E882384
S113182009F06AC0F7018081833009F05AC08481CD
S1131830813009F056C08701015D1F4FF80180E037
S113184092E011920197E9F78DE292E0E80EF91E19
S113185085E5D7018D937D018AEA8C93E2EDFDEF56
S1131860EE0EFF1EC80142E552E561E671E40E94F6
S1131870EC01C7018D5E9D4F42E752E761E471E6DA
S11318800E94EC01D7011F964D915D916D917C9161
S11318905297C701895E9D4F0E94EC01F701438571
S11318A0548565857685C701855E9D4F0E94EC0150
S11318B0D7015B962D913D914D915C915E972F5F81
S11318C03F4F4F4F5F4FF70123A734A745A756A7B4
S11318D08181B80101E010E00E94F41BD701149645
S11318E01C92F701818160E040E050E00E945D1CA1
S11318F0882311F0BB24B394D6011E968C911E97B5
S11319008F7B1E968C938B2D0F900F90CF91DF9130
S11319101F910F91FF90EF90DF90CF90BF900895AB
S11319200F931F93DF93CF9300D0CDB7DEB78C0115
S11319300E94860B882359F4C801BE016F5F7F4F54
S11319400E947802882319F4F801118210820F9002
S11319500F90CF91DF911F910F9108953F924F9275
S11319605F926F927F928F929F92AF92BF92CF922B
S1131970DF92EF92FF920F931F93DF93CF93CDB734
S1131980DEB768970FB6F894DEBF0FBECDBF6B010C
S1131990B42EDB011D921C920E9432027C0197FF3F
S11319A002C08BE0B4C2FC01EE0FFF1FE459FD4FEF
S11319B0008111810115110511F48CE0A8C2F60112
S11319C0118300837EEFD72EDB20D8018C918823EE
S11319D061F011968C910E94E01A80FD06C0DD2012
S11319E009F492C282FD8EC28FC2F8011082E18294
S11319F08E2D0E94E71A80FF02C083E088C2DD209A
S1131A0011F082FD7FC2C80140E050E060E070E068
S1131A100E943C09823029F01D8A1E8A1F8A188E72
S1131A2054C06E010894C11CD11C56016EEBE62E05
S1131A3061E0F62E2FE230E0E20EF31EF801EE0D27
S1131A40FF1D81ED9FEFE80EF91E8481882329F4A0
S1131A5060E070E080E090E004C0CF0108960E944E
S1131A60C001D5016D937D938D939D935D01E0E15C
S1131A70F0E0EE0EFF1EFEEFEF16F1E0FF06D1F6EA
S1131A8051E1E52EF12CEC0EFD1ED6018D919D91B8
S1131A900D90BC91A02D8D8B9E8BAF8BB88F009732
S1131AA0A105B10511F483E009C0C8014D895E891F
S1131AB06F89788D0E943C09823070F0E4E0F0E098
S1131AC0CE0EDF1ECE14DF0401F7843011F481E062
S1131AD01EC2823008F01AC2D801DB969C91DB97B3
S1131AE080E0DA962C9130E0822B932B8050924048
S1131AF009F00CC20A5B1F4FF801908180E0D80105
S1131B002E918D010554104030E0822B932B2C0133
S1131B1066247724411451046104710439F4C80122
S1131B208D5A9F4F0E94C0012B013C01F801478A46
S1131B30508E618E728E37AC3282832D815082300A
S1131B4008F0E4C184AD282F30E0328721872115C5
S1131B50310509F4DBC1C901019782239323892B41
S1131B6009F0D4C10F5B1F4FD8019C9180E0F801AC
S1131B7022918F0100541040C22EDD24C82AD92A94
S1131B80D8011896DC92CE921797C6018F70907088
S1131B90892B09F0BBC10D5B1F4FF801908180E0D8
S1131BA0D8012E918D010254104030E0822B932BEA
S1131BB04C01AA24BB2481149104A104B10439F476
S1131BC0C801815B9F4F0E94C0014B015C01F80179
S1131BD096AD80E025ADE22EFF24E82AF92AE1142F
S1131BE0F10409F493C1232D30E040E050E0C30137
S1131BF0B2010E94241F698B7A8B8B8B9C8B2701EB
S1131C006624772444E0D694C7944A95E1F7EE24F9
S1131C10FF24C40CD51CE61CF71CC60ED71EE81EF8
S1131C20F91E8C149D04AE04BF0408F46FC18C1813
S1131C309D08AE08BF08D80119962D913C911A97BA
S1131C4040E050E0C501B4010E94431FC901DA011C
S1131C500097A105B10509F459C1863FEFEF9E072E
S1131C60EFEFAE07EFE0BE0708F050C1863FFFEF8D
S1131C709F07F0E0AF07F0E0BF0718F033E0332E22
S1131C800DC0863F2FE0920720E0A20720E0B207B4
S1131C9018F43324339402C022E0322EF2E08F2E63
S1131CA0912CA12CB12C880E991EAA1EBB1ED80102
S1131CB053968D929D92AD92BC9256978D899E8932
S1131CC0AF89B88DF801838F948FA58FB68F9C014F
S1131CD0AD01240D351D461D571DD8015F962D936A
S1131CE03D934D935C9392978D899E89AF89B88D6E
S1131CF0C80ED91EEA1EFB1ED8019796CD92DD921E
S1131D00ED92FC929A97B3E03B1661F5065A1F4F89
S1131D10F801908180E0D8012E918D010955104081
S1131D2030E0822B932B892B09F0F0C0F8018781D6
S1131D309085892B09F0EAC0C801855A9F4F0E94FB
S1131D40C001D80193966D937D938D939C93969740
S1131D50A5019401E2E0220F331F441F551FEA95A9
S1131D60D1F737C0F80187819085892B09F4CEC05B
S1131D7089899A89AB89BC89280F391F4A1F5B1F3F
S1131D80D80193962D933D934D935C939697D501EB
S1131D90C401880F991FAA1FBB1FE2E03E1619F465
S1131DA09C01AD0116C09C01AD01280D391D4A1DD1
S1131DB05B1D569547953795279581E090E0A0E007
S1131DC0B0E088229922AA22BB22280D391D4A1D7F
S1131DD05B1D21503E4F4F4F5F4F99E056954795FD
S1131DE0379527959A95D1F7F8018789908DA18D1C
S1131DF0B28D82179307A407B50708F487C08FEF45
S1131E009FEFAFEFBFEF8787908BA18BB28B838758
S1131E109487A587B68780E88483F3E03F1609F0AA
S1131E2061C0005A1F4FD8019C9180E0F8012291B3
S1131E308F010F55104030E0822B932B019709F04E
S1131E4051C08D899E89AF89B88D0196A11DB11DA0
S1131E508D8B9E8BAF8BB88FC8014D895E896F893E
S1131E60788D0E94F902882309F03CC0D8011496A9
S1131E701C92025D1D4FF801908180E0D8012E91E3
S1131E808D010D52124030E0822B932B85559A4AD6
S1131E9049F5C8018F960E94C0016255724581467A
S1131EA0914401F5C8018D5E9D4F0E94C0016257A7
S1131EB0724781449146B1F4C801895E9D4F0E94E6
S1131EC0C001D8011F966D937D938D939C93529777
S1131ED0C801855E9D4F0E94C001F8016387748725
S1131EE085879687D8013C9280916E0290916F020B
S1131EF0019690936F0280936E0216969C938E9334
S1131F00159702C08AE003C080E001C08DE06896A6
S1131F100FB6F894DEBF0FBECDBFCF91DF911F91F6
S1131F200F91FF90EF90DF90CF90BF90AF909F9074
S1131F308F907F906F905F904F903F9008952F9275
S1131F403F924F925F926F927F928F929F92AF9245
S1131F50BF92CF92DF92EF92FF920F931F93DF9382
S1131F60CF93CDB7DEB7E8970FB6F894DEBF0FBEB8
S1131F70CDBF9CAB8BAB7CA76BA7892B19F499E0E5
S1131F80B92E46C38FE3282E2422CE018B96BE01A0
S1131F906F5F7F4F422D0E94AE0C882309F07EC3F1
S1131FA0C980DA80DC82CB82EBA4FCA403C0089451
S1131FB0E11CF11CD7018C918F32C9F38C35B9F334
S1131FC019861A861B861C868C91803278F480E8E8
S1131FD08AA7CE01039640E050E060E070E00E94E2
S1131FE01D04B82E882309F4D1C0D4C00FE1602E9B
S1131FF0712C6C0E7D1E1AE2A12EB12CAC0EBD1EEE
S1132000B5E03B2EA3E04A2E512C4C0E5D1EF3018D
S1132010B0E2B193EA15FB05D9F7A8E0B0E000E01F
S113202010E040E050E004C0ABE0B0E048E050E035
S1132030F701E00FF11F20810F5F1F4F213208F4D9
S11320403FC02F3211F02C3569F4F701E00FF11F76
S113205003C00F5F1F4F319680818F32D1F38C35CF
S1132060C1F32EC02E3219F04A175B0730F01B97CC
S113207009F40CC32E32C1F209C327FF07C0E22FB3
S1132080F0E0EF77F070E751FE4F2081622F70E0AF
S1132090EEE0F1E001C031968081882329F090E0E0
S11320A086179707C1F7F2C2822F81568A3108F446
S11320B02052F301E40FF51F20834F5F5F4FB8CF29
S11320C0452B09F4E3C28F8D853E09F43F8E2132FE
S11320D010F080E001C084E08AA78B809C80C2015C
S11320E040E050E060E070E00E941D04982F8823D7
S11320F069F5498D5A8D6B8D7C8DC4010E94F9025E
S1132100982F882319F5ED8DFE8D8081882311F495
S113211094E01CC083858F738F83838583FD10C0F7
S1132120DF01F3018D91282F30E08191281B3109C3
S1132130EA15FB0519F0232BA9F302C0232B31F078
S1132140C20160E070E00E947907D0CF8AA599238C
S113215039F0B92EE4E09E17E9F482FF94C21AC064
S113216082FD14C08F8184FF8EC2E00EF11E698946
S11321707A897170615D7F4F6C0D7D1DC6010E946F
S1132180030269877A878B879C8741CF8AA587FD5D
S11321907DC2BB24222D30E0C9018C719070892B43
S11321A009F410C1BB2009F44DC0F4E0BF1609F0D6
S11321B070C2EB80FC808E010D5F1F4FC80140E0B0
S11321C050E060E070E00E941D04B82E8823D9F42A
S11321D0498D5A8D6B8D7C8DC7010E94F902B82EF2
S11321E0882389F4ED8DFE8DE081E53E09F458C223
S11321F0EE2309F455C2C80161E070E00E9479073A
S1132200B82E882329F384E0B81609F042C235C2F7
S1132210ED8DFE8D80E290E011920197E9F7AD8D8E
S1132220BE8DFE017F969E01265D3F4F81918D9369
S1132230E217F307D9F781E0D70113968C93B8E03E
S11322402B2A06C08F81817109F017C222FCFAC1C2
S113225023FEC5C00D8D1E8D89819A81B8010E940F
S113226003023B014C01C8010E9640E050E061E2DC
S11322707CE40E94EC01ED8DFE8D80E28387E98190
S1132280FA81AD8DBE8D5A961C925A975B961C921C
S11322905B978081833029F454961C925497559609
S11322A01C928D8D9E8D4C9640E050E060E070E075
S11322B00E94EC01E981FA8181E083836114710455
S11322C08104910409F48BC0E981FA8183A594A562
S11322D0A5A5B6A58FA798ABA9ABBAAB4B805C807C
S11322E092E0691671048104910408F4C9C1F201F1
S11322F083899489A589B689681679068A069B0616
S113230008F0BEC1362CB72C8401CE010396432DB0
S11323105B2DB8010E9441036B017C0161157105BD
S11323208105910509F491C161307105810591051B
S113233009F4A6C18FEFC8168FEFD8068FEFE80611
S11323408FEFF80609F45CC1C201432D5B2DB8017F
S113235000E010E020E030E00E942A05B82E882337
S113236009F050C1D2011F962D913D914D915C9180
S1132370529753968D919D910D90BC91A02D0297EB
S1132380A109B109281739074A075B0760F42F5FD1
S11323903F4F4F4F5F4FF2012787308B418B528B5A
S11323A0848181608483F20183899489A589B689B3
S11323B0C816D906EA06FB0608F047C13C2CBD2C1A
S11323C08701A3CFBB2009F064C18F8184FF03C0C0
S11323D0F4E0BF2E17C121FE02C080FD4EC123FED2
S11323E002C0F0E42F2AE980FA80F70183A594A5BE
S11323F0A5A5B6A5EBA9FCA9848F958FA68FB78F49
S11324000D8D1E8D11A300A3C701B8010E94030204
S1132410ABA9BCA916966D937D938D939C93199744
S1132420C8014C960E94C001EBA9FCA9628773877E
S113243084879587F182E082D70115968D919C91CE
S113244016979383828326861786EBA9FCA9108EA0
S1132450118E128E138EDF01108A118A128A138A4A
S11324609296BEA7ADA7FD0180E092E0119201977C
S1132470E9F725FECCC0EBA9FCA922853385448568
S11324805585211531054105510509F4C0C0DF0109
S1132490208B318B428B538BE981FA818185928524
S11324A03C0188249924E9E0660C771C881C991C5B
S11324B0EA95D1F71696ED90FD900D911C91199720
S11324C019012A01CBA8DCA888279927DC018619E1
S11324D09709A809B9098DAB9EABAFABB8AF26C0BD
S11324E0C601B801A7010E9441037B018C0192E05F
S11324F0E916F1040105110518F472E0B72E01C0C4
S1132500BB24AFEFEA16AFEFFA06AFEF0A07AFEF5F
S11325101A0711F4BB24B3948DA99EA9AFA9B8AD31
S1132520280E391E4A1E5B1EBB2031F4621473044C
S113253084049504A8F2BB24ABA9BCA95496ED92DB
S1132540FD920D931C935797BB2009F0A6C0D201AE
S1132550C1019170A070B0700097A105B10509F494
S113256057C0C980DA808EEF9FEFAFEFBFEFE80E60
S1132570F91E0A1F1B1FF60183899489A589B68950
S11325800297A109B109E816F9060A071B0708F022
S113259077C02185328540E050E0C801B7010E9430
S11325A0241F7B018C01F60187A190A5A1A5B2A5EA
S11325B0E80EF91E0A1F1B1FE114F10401051105A1
S11325C009F45EC0A201910169E0569547953795DB
S11325D027956A95D1F72E0D3F1D401F511FABA9BA
S11325E0BCA958962D933D934D935C935B97818141
S11325F06DA57EA501E010E00E94A71B882341F091
S1132600BB24B394EBA9FCA91182108201C0BB24A2
S11326108B2DE8960FB6F894DEBF0FBECDBFCF91D9
S1132620DF911F910F91FF90EF90DF90CF90BF90BB
S1132630AF909F908F907F906F905F904F903F905E
S11326402F90089598E0B92EDDCF89819A814FA506
S113265058A969A97AA90E94F902B82EE981FA81D8
S113266008946108710881089108638674868586D8
S11326709686882309F4B3CEC5CF87E0B82EC2CF9F
S113268002E0B02EBFCF15E0B12E84CDB6E0BB2E54
S113269081CDBB2009F4BCCFB5CF8B2DB82EB2CFE2
S11326A0498D5A8D6B8D7C8DC7010E94F902B82E1D
S11326B0882309F4ADCDEDCF1F93DF93CF9300D0E2
S11326C000D000D0CDB7DEB79C838B837E836D832F
S11326D0142F7A836983CE0101960E943202DC01B1
S11326E097FF02C08BE022C0FC01EE0FFF1FE459EC
S11326F0FD4F0190F081E02D309709F01082EB81BD
S1132700FC81309709F01082AA0FBB1FA459BD4F5A
S1132710ED93FC93112311F480E008C0CE010596DB
S1132720BE016D5F7F4F40E00E94AE0C26960FB64F
S1132730F894DEBF0FBECDBFCF91DF911F910895F6
S11327401092B90080E28093B80084E08093BC00CA
S11327500895982F84EA8093BC0020EA30E007C0F3
S11327602150304021F480917B02816015C080911A
S1132770BC0087FD03C02115310591F79093BB0080
S113278084E88093BC0020EA30E009C02150304046
S113279031F480917B02826080937B020895809162
S11327A0BC0087FD03C02115310581F7089584E934
S11327B08093BC0008958093BB0084E88093BC00A0
S11327C020EA30E009C02150304031F480917B028E
S11327D0846080937B0208958091BC0087FD03C0D0
S11327E02115310581F70895EF92FF920F931F93FE
S11327F0CF93DF937C018B0188E70E94A91380E4C7
S11328000E94DB13C0E0D0E007C0F701EC0FFD1F0E
S113281080810E94DB132196C017D107B0F30E9478
S1132820D713DF91CF911F910F91FF90EF900895EF
S1132830FF920F931F93CF93DF93182F092FF62E38
S113284088E70E94A91380E00E94DB13212F302F18
S1132850C901EC0110E004C089910E94DB131F5FE1
S11328601F15D0F30E94D713DF91CF911F910F91C1
S1132870FF900895DF93CF9300D000D0CDB7DEB79B
S1132880982F8631B0F46830A0F486E0989FC00198
S1132890112480937002609371026055698321E270
S11328A02A838B838FE78C83CE01019664E00E9498
S11328B018140F900F900F900F90CF91DF910895FF
S11328C080E060E00E943A1408958F929F92AF9244
S11328D0BF92CF92DF92EF92FF920F931F93DF93F9
S11328E0CF93CDB7DEB760970FB6F894DEBF0FBEB7
S11328F0CDBF982F8930E9F08A3020F4883009F070
S113290043C005C08A3079F18D30F1F537C080912C
S1132910700290916601891B609171020E943A14C1
S113292080E20E9465148091700290916601891B77
S113293026C06091700280916601482F50E0440FD8
S1132940551F440F551F9A01260F311D88279927BB
S1132950841B950B45962817390718F4862F840F86
S11329600EC085E10CC060917102673008F0FBC0B5
S113297080916601680F8091700203C080E06091CD
S113298071020E943A14EFC0809170028A3708F0F5
S1132990EAC0903208F4E7C0192F1052E9EDF2E0D2
S11329A0E4911E17D8F020E0412F50E00CC088526B
S11329B09D4FFC01849190E080978417950711F452
S11329C0132F0CC02F5F822F90E0880F991FFC01FA
S11329D0E752FD4F34913F3F51F7C5C080916601E6
S11329E0823009F0A2C045E0A42EB12CAC0EBD1E6D
S11329F086E0189FF0011124E859FF4F650101E0BA
S1132A0010E031E1E32EF12CEC0EFD1ED6011D92F7
S1132A101C92849140E050E061E070E0882E99249B
S1132A20C401042E02C0959587950A94E2F780FFAD
S1132A301BC0CA01880F991F980102C0220F331FBF
S1132A408A95E2F7C901D6012D913C911197822B09
S1132A50932B9801062E02C0220F331F0A94E2F72B
S1132A60822B932B8D939C934F5F5F4F6E5F7F4FB1
S1132A7048305105A9F622E030E0C20ED31E31964B
S1132A80CE14DF0409F0C2CF88E70E94A91380E4C2
S1132A900E94DB137501D7011C91812F0E94DB1367
S1132AA0812F0E94DB13E2E0F0E0EE0EFF1EEC1437
S1132AB0FD0489F70E94D7139091700280917102EE
S1132AC08F54898381E28A839B838FE78C83CE0131
S1132AD0019664E00E94181488E70E94A91380E418
S1132AE00E94DB13D50111961C91812F0E94DB13E8
S1132AF0812F0E94DB13E2E0F0E0AE0EBF1EAC14A7
S1132B00BD0481F70E94D713809171028055898397
S1132B1080917002845F8B83CE01019664E00E94F1
S1132B20181480917002845F1CC088E70E94A91366
S1132B3080E40E94DB1386E0189F80011124085969
S1132B401F4FFF24F80184910E94DB13F3940F5F5D
S1132B501F4FF6E0FF16B1F70E94D7138091700261
S1132B608A5F8093700260960FB6F894DEBF0FBE42
S1132B70CDBFCF91DF911F910F91FF90EF90DF9028
S1132B80CF90BF90AF909F908F900895CF93DF9395
S1132B90EC0103C021960E94651488818823D1F733
S1132BA0DF91CF910895FF920F931F93DF93CF93FB
S1132BB0CDB7DEB7C058D0400FB6F894DEBF0FBE15
S1132BC0CDBFFE01319680E8DF011D928A95E9F7B9
S1132BD010E0FE2E0F2F80E0612F0E943A148F2DFB
S1132BE0902F60E870E00E94F4131F5F183099F78B
S1132BF00E946014C058DF4F0FB6F894DEBF0FBEBA
S1132C00CDBFCF91DF911F910F91FF9008951F9336
S1132C10DF93CF93CDB7DEB76C970FB6F894DEBFD2
S1132C200FBECDBF182F0E94A01320E030E0CE01CC
S1132C300196F901E451FD4FE491DC01A20FB31FA9
S1132C40EC932F5F3F4F2B31310599F71C8F6CE1CB
S1132C500E9418140E94D3156C960FB6F894DEBF28
S1132C600FBECDBFCF91DF911F910895E7E6F1E04C
S1132C708DE191E0819321E0E63BF207D9F780E012
S1132C8090E0A0E0B0E08093720290937302A0936E
S1132C907402B09375028093760290937702A093A6
S1132CA07802B093790208950E94361620E030E04D
S1132CB08091C00087FFFCCF9091C6009D3029F021
S1132CC09A3019F0203531056CF080916701843217
S1132CD099F480916801873479F480916901803591
S1132CE059F41AC0943269F480916701843221F056
S1132CF080916801843249F40E94361620E030E065
S1132D000DC080916701843299F6F901E959FE4FAB
S1132D1090832F5F3F4FCCCF21E030E0C90108956D
S1132D202F923F924F925F926F927F928F929F92D7
S1132D30AF92BF92CF92DF92EF92FF920F931F93C5
S1132D40DF93CF93CDB7DEB7C056D0400FB6F8941B
S1132D50DEBF0FBECDBF87EB91E00E94651F60937D
S1132D60720270937302809374029093750286ECDE
S1132D7091E00E94651F60937602709377028093BE
S1132D8078029093790289ED91E00E94651F26E50F
S1132D903EE04DEE5FE30E949D1E0E94DA1D6D969B
S1132DA07FAF6EAF6D976A30710524F46D961FAED8
S1132DB01EAE6D97C0907202D0907302E0907402C0
S1132DC0F0907502C701B60120E030E040E050E029
S1132DD00E94991E18160CF022C1809076029090E1
S1132DE07702A0907802B0907902C501B40120E086
S1132DF030E040E050E00E94991E18160CF00FC11C
S1132E00C701B60120E030E048EC52E40E94721D94
S1132E100E94DA1D2B013C0104E610E0049DB00180
S1132E20059D700D149D700D1124882777FD8095E4
S1132E30982F0E940D1E9B01AC01C701B6010E9490
S1132E400D1D6B017C016093720270937302809379
S1132E50740290937502C501B40120E030E048EC9F
S1132E6052E40E94721D0E94DA1DA1966CAF7DAFE0
S1132E708EAF9FAFA1976F96AEADBFAD6F970A9F10
S1132E80B0010B9F700D1A9F700D1124882777FDD8
S1132E908095982F0E940D1E9B01AC01C501B401C1
S1132EA00E940D1D4B015C016093760270937702C2
S1132EB08093780290937902EDB7FEB73C970FB6F2
S1132EC0F894FEBF0FBEEDBF0DB71EB70F5F1F4FC7
S1132ED01E010894211C311C328221828EE191E072
S1132EE0D80113969C938E93129715965C924E92EA
S1132EF01497C701B60120E030E040E752E40E9495
S1132F00721D20E030E543EC57E40E949D1E0E94B0
S1132F10DF1DF801668377838087918785ED91E0D3
S1132F20938782870E94A51F0DB71EB70F5F1F4F9F
S1132F308FE1E82EF12CEC0EFD1EADB7BEB7129654
S1132F40FC92EE9211978DE291E0F80193838283D3
S1132F506F968EAD9FAD6F9795838483C501B40141
S1132F6020E030E040E752E40E94721D20E034E2A9
S1132F7044E759E40E949D1E0E94DF1DD801169665
S1132F806D937D938D939C93199787ED91E01B9698
S1132F909C938E931A970E94A51FEDB7FEB73696A1
S1132FA00FB6F894FEBF0FBEEDBF31968E01035CE1
S1132FB01F4FADB7BEB712961C930E9311978CE3B7
S1132FC091E0938382836D968EAD9FAD6D979583CB
S1132FD084830E94A51FADB7BEB716960FB6F894AA
S1132FE0BEBF0FBEADBF0E94D315C1010E94C6155E
S1132FF080E062E00E943A14C7010E94C61580E096
S113300064E00E943A14C8010E94C61580E593EC5E
S113301028EC30E0F9013197F1F70197D9F7C05A5C
S1133020DF4F0FB6F894DEBF0FBECDBFCF91DF9157
S11330301F910F91FF90EF90DF90CF90BF90AF90D2
S11330409F908F907F906F905F904F903F902F90C4
S113305008950F931F93DF93CF93CDB7DEB7C05579
S1133060D0400FB6F894DEBF0FBECDBF8E010F5F08
S11330701F4FC80167E671E00E94771FC80166E42C
S113308071E00E94691F68E471E00E946E1F00975E
S113309009F063C080E090E066E471E00E94691F7B
S11330A080E090E066E471E00E94691F80E090E0B7
S11330B066E471E00E94691FBC0187EB91E00E9405
S11330C0771F80E090E066E471E00E94691FBC0114
S11330D085ED91E00E94771F80E090E066E471E066
S11330E00E94691FBC0186EC91E00E94771F80E07A
S11330F090E066E471E00E94691FBC0187ED91E0F5
S11331000E94771F80E090E066E471E00E94691FEE
S1133110BC0189ED91E00E94771F80E090E066E4B5
S113312071E00E94691F80E090E066E471E00E9413
S1133130691F80E090E066E471E00E94691F80E00E
S113314090E066E471E00E94691F80E090E066E42C
S113315071E00E94691F0E949016C05BDF4F0FB69A
S1133160F894DEBF0FBECDBFCF91DF911F910F91B9
S11331700895DF93CF9300D000D0CDB7DEB78CE7AE
S113318092E06DE171E040E00E945C138BEA94E010
S11331906FE471E042E30E949F0F8823D1F48BEA2D
S11331A094E067E671E040E550E09E012F5F3F4FF9
S11331B00E9493098BEA94E067E571E042E050E0F5
S11331C09E012D5F3F4F0E9493098BEA94E00E9479
S11331D0900C0F900F900F900F90CF91DF91089566
S11331E01092C50083E38093C40088E18093C100FA
S11331F086E08093C2008FEA0E9407160E94D315CE
S113320085E062E00E943A148AE591E00E94C615C6
S11332100E945416019721F40E94B9180E9429189B
S11332200E943616F5CFFC01819187FF02C0299ACE
S113323001C029982A9A2A9886FF02C0299A01C0B7
S113324029982A9A2A9885FF02C0299A01C02998A8
S11332502A9A2A9884FF02C0299A01C029982A9A96
S11332602A9883FF02C0299A01C029982A9A2A9889
S113327082FF02C0299A01C029982A9A2A9881FFBC
S113328002C0299A01C029982A9A2A9880FF02C06C
S1133290299A01C029982A9A2A986150704021F6E7
S11332A00895FC01299A83B181702A9A2A98880F7B
S11332B018998F5F2A9A2A98880F18998F5F2A9AEB
S11332C02A98880F18998F5F2A9A2A98880F189934
S11332D08F5F2A9A2A98880F18998F5F2A9A2A98BA
S11332E0880F18998F5F2A9A2A98880F18998F5FE8
S11332F02A9A2A9880836150704011F03196D3CF76
S11333000895EF92FF920F931F93DF93CF930F9241
S1133310CDB7DEB708E813E17E010894E11CF11C87
S1133320C70161E070E00E94511989818F3F59F013
S113333084E690E023B123B123B123B10197D1F7FF
S11333400150104069F798010115110511F021E0B1
S113335030E0C9010F90CF91DF911F910F91FF9041
S1133360EF900895DF93CF930F92CDB7DEB72B9AEA
S1133370CE01019661E070E00E9451190F90CF9147
S1133380DF910895DF93CF930F92CDB7DEB72B98DB
S1133390CE01019661E070E00E9451190E948119EA
S11333A0892B19F021E030E004C00E94B21920E01A
S11333B030E0C9010F90CF91DF910895AF92BF9291
S11333C0CF92DF92EF92FF920F931F93DF93CF93ED
S11333D000D0CDB7DEB77C016B0108EE13E05E01CF
S11333E00894A11CB11CC50161E070E00E94511950
S11333F089818F3F59F484E690E023B123B123B14E
S113340023B10197D1F70150104069F789818E3FAC
S113341019F020E030E00CC0C701B6010E94511938
S1133420CE01019662E070E00E94511921E030E083
S1133430C9010F900F90CF91DF911F910F91FF90D1
S1133440EF90DF90CF90BF90AF900895DF92EF920E
S1133450FF920F931F93DF93CF9300D0CDB7DEB7C6
S11334607C01D62E0E948119892B19F420E030E0CA
S113347028C0D9828E010F5F1F4FC80161E070E040
S11334800E9413198DEFD81619F421E030E019C009
S1133490C70160E072E00E941319C80162E070E0A5
S11334A00E945119C80161E070E00E94511990E036
S11334B089818F71853009F091E081E09827292F67
S11334C030E0C9010F900F90CF91DF911F910F91C0
S11334D0FF90EF90DF900895DF92EF92FF920F93A9
S11334E01F93DF93CF93CDB7DEB727970FB6F8942A
S11334F0DEBF0FBECDBFD82E7A018B0187FF0CC073
S113350087E340E050E060E070E00E946C1A823093
S113351008F048C08FE7D8228CE0D81661F00E94EA
S1133520B2190E94C219892B11F48FEF3BC0DD2020
S113353011F425E906C088E0D81611F427E801C083
S113354021E08D2D80648A83812F9927AA27BB27A8
S11335508B83C801AA27BB278C83BB27A12F902F5D
S11335608F2D8D83EE822F83CE01029666E070E06C
S11335700E9413198CE0D81631F4CE01019661E053
S113358070E00E9451191AE07E010894E11CF11CBC
S1133590C70161E070E00E945119898187FF02C070
S11335A01150B1F727960FB6F894DEBF0FBECDBF0A
S11335B0CF91DF911F910F91FF90EF90DF900895CD
S11335C0882311F081E008958091E8010895EF9235
S11335D0FF920F931F93DF93CF9300D000D0CDB70A
S11335E0DEB7882311F013E0A6C080E197E223B18F
S11335F023B123B123B10197D1F7239A2B9A229AAD
S11336002A98219A1AE07E010894E11CF11CC70152
S113361061E070E00E9451191150C9F780E040E068
S113362050E060E070E00E946C1A813009F078C0CC
S113363088E04AEA51E060E070E00E946C1A813050
S113364009F03DC0C70164E070E00E9451198B810C
S1133650813009F065C08C818A3A09F061C008EEB6
S113366013E089EA40E050E060E070E40E946C1AE4
S1133670882361F088EE93E023B123B123B123B111
S11336800197D1F70150104061F74AC08AE340E046
S113369050E060E070E00E946C1A882309F040C09A
S11336A0CE01019664E070E00E945119898186FD83
S11336B003C074E0F72E35C06CE0F62E32C089EA00
S11336C040E050E060E070E00E946C1A823028F024
S11336D0FF24F394EE24E39404C052E0F52E49EA67
S11336E0E42E08EE13E08E2D40E050E060E070E040
S11336F00E946C1A882361F088EE93E023B123B111
S113370023B123B10197D1F70150104061F708C0EC
S113371080E140E052E060E070E00E946C1A8111A8
S1133720FF24F0927A0210E0FF2009F411E01093D4
S1133730E8010E94B219812F0F900F900F900F9003
S1133740CF91DF911F910F91FF90EF900895FF9219
S11337500F931F93CF93DF93EB01882311F081E044
S113376002C08091E80180FF02C083E037C08091ED
S11337707A0283FD07C0A9E0220F331F441F551F9F
S1133780AA95D1F70230110518F4F1E1FF2E02C019
S1133790E2E1FE2E8F2DBA01A9010E946C1A882342
S11337A0B9F4CE0160E072E00E94DE19892B31F099
S11337B00150104019F0C050DE4FF3CF82E1F816EB
S11337C039F48CE040E050E060E070E00E946C1A54
S11337D00E94B21980E0012B09F081E0DF91CF91C2
S11337E01F910F91FF900895CF92DF92EF92FF9275
S11337F00F931F93CF93DF93EB0169017A01882321
S113380011F081E002C08091E80180FF02C083E0F2
S11338104BC080917A0290E083FD07C0B9E0CC0CE4
S1133820DD1CEE1CFF1CBA95D1F70130110581F4A3
S113383088E1B701A6010E946C1A882379F5CE01AC
S11338406EEF0E94261A892B49F100E010E026C091
S113385086709070892B31F0A80160E070E087E9F0
S11338600E946C1A89E1B701A6010E946C1A882390
S1133870A9F4CE016CEF0E94261A892B31F0015075
S1133880104019F0C050DE4FF4CF80E090E06DEFAF
S11338900E94261A892B11F401E010E00E94B2194B
S11338A080E0012B09F081E0DF91CF911F910F910E
S11338B0FF90EF90DF90CF9008950F931F93DF93C5
S11338C0CF93CDB7DEB760970FB6F894DEBF0FBEC7
S11338D0CDBF8A01882311F081E002C08091E80104
S11338E080FF02C013E08DC0613069F0613028F0C0
S11338F0633009F479C014E082C00E94C219892B94
S113390009F47CC041C089E040E050E060E070E030
S11339100E946C1A882309F071C0CE01019660E1FF
S113392070E00E94DE19892B09F468C089818295B0
S1133930869586958370288569857A85813031F5E9
S113394030E040E050E02F73307040705070A901B7
S1133950332722272F5F3F4F4F4F5F4F962F80E033
S1133960870F911DA0E0B0E0280F391F4A1F5B1F8D
S11339706AE0220F331F441F551F6A95D1F7F801DF
S1133980208331834283538310E039C06295669566
S11339906695637030E0220F331F220F331F260F0A
S11339A0311D2F5F3F4F8F8190E083709070982F6F
S11339B08827990F990F280F391F40E050E08E8116
S11339C08F706B85661F6627661F860F8E5F737008
S11339D0770F870F90E0099704C0220F331F441F0D
S11339E0551F8A95D2F7CBCF80E890E0A0E0B0E0F5
S11339F0F80180839183A283B383C6CF11E00E9430
S1133A00B219812F60960FB6F894DEBF0FBECDBFFA
S1133A10CF91DF911F910F9108955058BB27AA278A
S1133A200ED04DC13ED130F043D120F031F49F3F50
S1133A3011F41EF433C10EF4E095E7FB29C1E92F1C
S1133A404FD180F3BA17620773078407950718F0FC
S1133A5071F49EF567C10EF4E0950B2EBA2FA02DDC
S1133A600B01B90190010C01CA01A0011124FF2727
S1133A70591B99F0593F50F4503E68F11A16F04022
S1133A80A22F232F342F4427585FF3CF4695379521
S1133A902795A795F0405395C9F77EF41F16BA0BE6
S1133AA0620B730B840BBAF09150A1F0FF0FBB1F94
S1133AB0661F771F881FC2F70EC0BA0F621F731FDD
S1133AC0841F48F4879577956795B795F7959E3F3A
S1133AD008F0B3CF9395880F08F09927EE0F9795C8
S1133AE0879508950CD0EBC0E3D040F0DAD030F0E5
S1133AF021F45F3F19F0CCC0511115C1CFC0F0D0F3
S1133B0098F39923C9F35523B1F3951B550BBB27A0
S1133B10AA2762177307840738F09F5F5F4F220F4D
S1133B20331F441FAA1FA9F333D00E2E3AF0E0E846
S1133B3030D091505040E695001CCAF729D0FE2F92
S1133B4027D0660F771F881FBB1F26173707480724
S1133B50AB07B0E809F0BB0B802DBF01FF279358DA
S1133B605F4F2AF09E3F510568F092C0DCC05F3F72
S1133B70ECF3983EDCF3869577956795B795F795C2
S1133B809F5FC9F7880F911D9695879597F90895BA
S1133B90E1E0660F771F881FBB1F62177307840756
S1133BA0BA0720F0621B730B840BBA0BEE1F88F765
S1133BB0E095089504D06894B111B5C0089598D0E3
S1133BC088F09F5790F0B92F9927B751A0F0D1F002
S1133BD0660F771F881F991F1AF0BA95C9F712C08C
S1133BE0B13081F09FD0B1E008959CC0672F782F49
S1133BF08827B85F39F0B93FCCF3869577956795F8
S1133C00B395D9F73EF490958095709561957F4F63
S1133C108F4F9F4F0895E89409C097FB3EF4909509
S1133C208095709561957F4F8F4F9F4F9923A9F091
S1133C30F92F96E9BB279395F69587957795679520
S1133C40B795F111F8CFFAF4BB0F11F460FF1BC064
S1133C506F5F7F4F8F4F9F4F16C0882311F096E9F7
S1133C6011C0772321F09EE8872F762F05C06623A5
S1133C7071F096E8862F70E060E02AF09A95660F5E
S1133C80771F881FDAF7880F9695879597F9089517
S1133C9097F99F6780E870E060E008959FEF80ECFB
S1133CA0089500240A94161617061806090608959E
S1133CB000240A9412161306140605060895092E04
S1133CC00394000C11F4882352F0BB0F40F4BF2B73
S1133CD011F460FF04C06F5F7F4F8F4F9F4F0895B3
S1133CE057FD9058440F551F59F05F3F71F04795A9
S1133CF0880F97FB991F61F09F3F79F0879508958E
S1133D00121613061406551FF2CF4695F1DF08C0AC
S1133D10161617061806991FF1CF869571056105C9
S1133D2008940895E894BB2766277727CB0197F971
S1133D30089566D008F48FEF08950BD0C0CFB1DF9B
S1133D4028F0B6DF18F0952309F0A2CFA7CF1124ED
S1133D50EACFC6DFA0F3959FD1F3950F50E0551F2E
S1133D60629FF001729FBB27F00DB11D639FAA27CC
S1133D70F00DB11DAA1F649F6627B00DA11D661F1B
S1133D80829F2227B00DA11D621F739FB00DA11D3C
S1133D90621F839FA00D611D221F749F3327A00DF6
S1133DA0611D231F849F600D211D822F762F6A2F92
S1133DB011249F5750408AF0E1F088234AF0EE0F17
S1133DC0FF1FBB1F661F771F881F91505040A9F724
S1133DD09E3F510570F05CCFA6CF5F3FECF3983E59
S1133DE0DCF3869577956795B795F795E7959F5F8B
S1133DF0C1F7FE2B880F911D9695879597F9089525
S1133E00990F0008550FAA0BE0E8FEEF16161706E7
S1133E10E807F907C0F012161306E407F50798F04F
S1133E20621B730B840B950B39F40A2661F0232B68
S1133E30242B252B21F408950A2609F4A140A695E4
S1133E408FEF811D811D0895629FD001739FF00142
S1133E50829FE00DF11D649FE00DF11D929FF00D16
S1133E60839FF00D749FF00D659FF00D9927729F4D
S1133E70B00DE11DF91F639FB00DE11DF91FBD01D8
S1133E80CF0111240895A1E21A2EAA1BBB1BFD0128
S1133E900DC0AA1FBB1FEE1FFF1FA217B307E40725
S1133EA0F50720F0A21BB30BE40BF50B661F771F7D
S1133EB0881F991F1A9469F760957095809590955D
S1133EC09B01AC01BD01CF010895662777270C94AF
S1133ED0A6214AE652E00E947E1F0895FB01DC0100
S1133EE08D91019080190110D9F3990B0895FB016C
S1133EF0DC0101900D920020E1F70895FA01A191EF
S1133F00B081009719F41097E1F0CD01DC01CD01E7
S1133F100D90002011F4C00113C0FB012191222354
S1133F2019F02015D9F7F3CFFB012191201519F4CD
S1133F301E92119606C02223C1F70D900020A1F70E
S1133F40D001FA01A193B0830895AEE0B0E0EBEAAA
S1133F50FFE10C94DB230D891E8986E08C831A8390
S1133F6009838FEF9FE79E838D839E01275E3F4FDA
S1133F70CE0101966F89788DA9010E94C91F2F81F6
S1133F803885020F131FF80110822E96E4E00C947A
S1133F90F723ABE0B0E0EFECFFE10C94CD233C0160
S1133FA02B015A01FC0117821682838181FD03C013
S1133FB06FEF7FEFC6C19AE0892E1E010894211C81
S1133FC0311CF3012381F20123FD859123FF8191AB
S1133FD02F01882309F4B2C1853239F423FD859178
S1133FE023FF81912F01853229F490E0B3010E94CF
S1133FF03C23E7CF982FFF24EE249924FFE1FF15FB
S1134000D0F09B3269F09C3228F4903259F093320C
S113401091F40EC09D3249F0903369F441E024C01C
S113402052E0F52A84E0F82A28C098E0F92A25C04D
S1134030E0E1FE2A22C0F7FC29C0892F80538A3090
S113404070F4F6FE05C0989C902C1124980E15C0AF
S1134050E89CE02C1124E80EF0E2FF2A0EC09E3208
S113406029F4F6FC6BC140E4F42A07C09C3619F429
S113407050E8F52A02C0983649F4F20123FD9591DF
S113408023FF91912F01992309F0B8CF892F8554EB
S1134090833018F08052833038F444E050E0A40EAA
S11340A0B51E5FE359830FC0933631F0933779F02F
S11340B0933509F056C020C0F5018081898342E020
S11340C050E0A40EB51E610101E010E012C0F5013C
S11340D0C080D180F6FC03C06FEF7FEF02C0692D72
S11340E070E042E050E0A40EB51EC6010E943123E8
S11340F08C015FE7F52214C0F501C080D180F6FC85
S113410003C06FEF7FEF02C0692D70E042E050E022
S1134110A40EB51EC6010E9426238C0150E8F52A80
S1134120F3FE07C01AC080E290E0B3010E943C2372
S1134130EA948E2D90E008171907A8F30EC0F60133
S1134140F7FC8591F7FE81916F0190E0B3010E9425
S11341503C23E110EA94015010400115110579F750
S1134160EAC0943611F0993669F5F7FE08C0F501F6
S1134170208131814281538184E090E00AC0F501BD
S1134180808191819C01442737FD4095542F82E022
S113419090E0A80EB91E9FE6F92257FF09C050957A
S11341A04095309521953F4F4F4F5F4FE0E8FE2AF1
S11341B0CA01B901A1012AE030E00E946823D82E87
S11341C0D21840C0953729F41F2D1F7E2AE030E015
S11341D01DC01F2D197F9F3661F0903720F498354C
S11341E009F0ACC00FC0903739F0983709F0A6C079
S11341F004C028E030E00AC0106114FD146020E11E
S113420030E004C014FD166020E132E017FF08C05E
S1134210F501608171818281938144E050E008C09E
S1134220F50180819181BC0180E090E042E050E0A2
S1134230A40EB51EA1010E946823D82ED2188FE7C0
S1134240F82EF122F6FE0BC05EEFF522D91438F4F5
S1134250F4FE07C0F2FC05C08FEEF82202C01D2D4B
S113426001C0192DF4FE0DC0FE01ED0DF11D80817C
S1134270803319F499EEF92208C01F5FF2FE05C0DD
S113428003C08F2D867809F01F5F0F2DF3FC14C037
S1134290F0FE0FC01E1510F09D2C0BC09D2C9E0C23
S11342A0911A1E2D06C080E290E0B3010E943C23C7
S11342B01F5F1E15C0F304C01E1510F4E11A01C0DF
S11342C0EE2404FF0FC080E390E0B3010E943C237E
S11342D002FF1DC001FD03C088E790E00EC088E521
S11342E090E00BC0802F867891F001FF02C08BE232
S11342F001C080E2F7FC8DE290E0B3010E943C2310
S113430006C080E390E0B3010E943C239A94D91440
S1134310C0F3DA94F101ED0DF11D808190E0B30159
S11343200E943C23DD20A9F706C080E290E0B3019F
S11343300E943C23EA94EE20C1F743CEF301668148
S11343407781CB012B96E2E10C94E923A0E0B0E065
S1134350ECEAF1E20C94D323EC015B0161157105E5
S113436019F0FB0191838083F9908F2D90E00E94D6
S11343700623892BC9F7FDE2FF1621F4F990EE24F8
S1134380E39405C02BE2F21609F4F990EE248E01B1
S113439001501040C80167E073E043E050E00E9420
S11343A00E23892B01F58E010E5F1F4FC8016AE0B1
S11343B073E045E050E00E940E23892B19F48E012E
S11343C0095F1F4FA114B10419F0F5011183008393
S11343D0E0FC04C070E090E080E814C070E090E07D
S11343E080E86FEF08C1C8016FE073E043E050E07C
S11343F00E940E23892B69F4A114B10429F470E0FE
S113440090E080EC6FE7F7C02296F501D183C0837A
S1134410F6CF8824992440E050E060E070E0EF2D6E
S1134420E053EA30A0F5F2E0EF2A8E2D90E09C01F3
S113443028703070E2FE06C0232B79F50894811CA5
S1134440911C2BC0232B19F0089481089108DB01DF
S1134450CA0112E0880F991FAA1FBB1F1A95D1F732
S1134460480F591F6A1F7B1F440F551F661F771F74
S11344704E0F511D611D711D483929E9520729E963
S1134480620729E1720748F084E0E82A06C0EE3F9B
S113449031F4E3FC39C098E0E92AF990C0CFE53360
S11344A011F0E53189F529912D3219F4E0E1EE2A74
S11344B005C02B3219F081E090E003C0299182E01D
S11344C090E0E22FE053EA3018F0C81BD90B1CC06F
S11344D020E030E0FCE020383F075CF4C901880F9D
S11344E0991F880F991F280F391F220F331F2E0F72
S11344F0311DE991E053EA3068F3E4FE03C03095DE
S113450021953F4F820E931ECE2CDD24E1FE07C081
S1134510A114B10421F02197F501D183C083CB010B
S1134520BA010E940B1E7B018C01F3E0CF22DD2433
S113453023E0C216D10421F417FB109517F9109546
S113454057016801C801B70120E030E040E050E0C5
S11345500E94C623882309F44AC097FE0DC026E2B0
S1134560E22E23E0F22E9094819491089394C0E279
S1134570D0E000E010E012C09EE3E92E93E0F92EB3
S1134580F6CFF7012591359145915491C601B501B6
S11345900E949D1E5B016C018C1A9D0A8C169D065F
S11345A084F7D595C7950F5F1F4F0630110529F085
S11345B08CEF9FEFE80EF91EF1CFC501D6017C0107
S11345C08D018C2D880F8D2D881F8F3F51F0C601D2
S11345D0B50120E030E040E050E00E94C62388238B
S11345E031F482E290E09093CE068093CD067E2D46
S11345F09F2D802F612F272F392F482F562FB90138
S1134600CA01CDB7DEB7ECE00C94EF239111C2C020
S1134610803219F089508550D0F70895FB01DC01F0
S11346204150504088F08D9181341CF08B350CF44E
S1134630805E659161341CF06B350CF4605E861B02
S1134640611171F3990B0895881BFCCFFC0105904F
S1134650615070400110D8F7809590958E0F9F1F80
S11346600895FC016150704001900110D8F78095C5
S113467090958E0F9F1F08950F931F93CF93DF93F1
S11346808C01EB018B8181FF1BC082FF0DC02E8149
S11346903F818C819D812817390764F4E881F98171
S11346A00193F983E88306C0E885F985802F09958D
S11346B0892B31F48E819F8101969F838E8302C062
S11346C00FEF1FEFC801DF91CF911F910F91089554
S11346D0FA01AA27283051F1203181F1E8946F932F
S11346E06E7F6E5F7F4F8F4F9F4FAF4FB1E03ED0D5
S11346F0B4E03CD0670F781F891F9A1FA11D680F73
S1134700791F8A1F911DA11D6A0F711D811D911DA5
S1134710A11D20D009F468943F912AE0269F11241A
S11347203019305D3193DEF6CF010895462F47707E
S1134730405D4193B3E00FD0C9F7F6CF462F4F70D9
S1134740405D4A3318F0495D31FD4052419302D037
S1134750A9F7EACFB4E0A6959795879577956795DD
S1134760BA95C9F700976105710508959B01AC01DD
S11347700A2E06945795479537952795BA95C9F704
S1134780620F731F841F951FA01D089539DB08F461
S113479081E008959927882708952F923F924F9298
S11347A05F926F927F928F929F92AF92BF92CF92BD
S11347B0DF92EF92FF920F931F93CF93DF93CDB7C6
S11347C0DEB7CA1BDB0B0FB6F894DEBF0FBECDBF3E
S11347D009942A88398848885F846E847D848C840F
S11347E09B84AA84B984C884DF80EE80FD800C8118
S11347F01B81AA81B981CE0FD11D0FB6F894DEBFFB
S10F48000FBECDBFED010895F894FFCF6A
S113480C52414D0046415400464154333200222A51
S113481C2B2C3A3B3C3D3E3F5B5D7C7F00004C6166
S113482C743A2025642E256C64202573004C6F6E1D
S113483C3A2025642E256C6420257300537065651D
S113484C643A202564002C00244750524D43004701
S113485C50532E747874000D0A0053746172746989
S113486C6E672E2E2E0001000000000000000000D8
S113487C0000000000000000000000000000000028
S113488C0000000000000000000000000000000018
S113489C0000000000000000000000000000000008
S11348AC00000000000000000000000000000000F8
S11348BC00000000000000000000000000000000E8
S11348CC00000000000000000000000000000000D8
S11348DC00000000000000000000000000000000C8
S11348EC000000000000000001809A45418E418FB9
S11348FC804545454949498E8F9092924F994F5521
S113490C5559999A9B9C9D9E9F41494F55A5A5A687
S113491CA7A8A9AAABACADAEAFB0B1B2B3B4B5B69F
S113492CB7B8B9BABBBCBDBEBFC0C1C2C3C4C5C68F
S113493CC7C8C9CACBCCCDCECFD0D1D2D3D4D5D67F
S113494CD7D8D9DADBDCDDDEDFE0E1E2E3E4E5E66F
S113495CE7E8E9EAEBECEDEEEFF0F1F2F3F4F5F65F
S10D496CF7F8F9FAFBFCFDFEFF006A
S9030000FC
